{
  "contractName": "CopyRightContract",
  "abi": [
    {
      "constant": true,
      "inputs": [],
      "name": "title",
      "outputs": [
        {
          "name": "",
          "type": "string"
        }
      ],
      "payable": false,
      "stateMutability": "view",
      "type": "function"
    },
    {
      "constant": true,
      "inputs": [],
      "name": "authorName",
      "outputs": [
        {
          "name": "",
          "type": "string"
        }
      ],
      "payable": false,
      "stateMutability": "view",
      "type": "function"
    },
    {
      "constant": true,
      "inputs": [],
      "name": "description",
      "outputs": [
        {
          "name": "",
          "type": "string"
        }
      ],
      "payable": false,
      "stateMutability": "view",
      "type": "function"
    },
    {
      "constant": true,
      "inputs": [],
      "name": "keywords",
      "outputs": [
        {
          "name": "",
          "type": "string"
        }
      ],
      "payable": false,
      "stateMutability": "view",
      "type": "function"
    },
    {
      "constant": true,
      "inputs": [],
      "name": "owner",
      "outputs": [
        {
          "name": "",
          "type": "address"
        }
      ],
      "payable": false,
      "stateMutability": "view",
      "type": "function"
    },
    {
      "constant": true,
      "inputs": [],
      "name": "price",
      "outputs": [
        {
          "name": "",
          "type": "uint256"
        }
      ],
      "payable": false,
      "stateMutability": "view",
      "type": "function"
    },
    {
      "constant": true,
      "inputs": [],
      "name": "author",
      "outputs": [
        {
          "name": "",
          "type": "address"
        }
      ],
      "payable": false,
      "stateMutability": "view",
      "type": "function"
    },
    {
      "constant": true,
      "inputs": [],
      "name": "previewFileHash",
      "outputs": [
        {
          "name": "",
          "type": "string"
        }
      ],
      "payable": false,
      "stateMutability": "view",
      "type": "function"
    },
    {
      "constant": false,
      "inputs": [
        {
          "name": "newOwner",
          "type": "address"
        }
      ],
      "name": "transferOwnership",
      "outputs": [],
      "payable": false,
      "stateMutability": "nonpayable",
      "type": "function"
    },
    {
      "inputs": [
        {
          "name": "_fileHash",
          "type": "string"
        },
        {
          "name": "_authorAddress",
          "type": "address"
        },
        {
          "name": "_authorName",
          "type": "string"
        },
        {
          "name": "_price",
          "type": "uint256"
        }
      ],
      "payable": false,
      "stateMutability": "nonpayable",
      "type": "constructor"
    },
    {
      "anonymous": false,
      "inputs": [
        {
          "indexed": true,
          "name": "buyerAddress",
          "type": "address"
        },
        {
          "indexed": false,
          "name": "buyerName",
          "type": "string"
        },
        {
          "indexed": false,
          "name": "price",
          "type": "uint256"
        },
        {
          "indexed": false,
          "name": "fileHash",
          "type": "string"
        }
      ],
      "name": "Buy",
      "type": "event"
    },
    {
      "anonymous": false,
      "inputs": [
        {
          "indexed": true,
          "name": "buyerAddress",
          "type": "address"
        },
        {
          "indexed": false,
          "name": "buyerName",
          "type": "string"
        },
        {
          "indexed": false,
          "name": "tokenAmount",
          "type": "uint256"
        },
        {
          "indexed": false,
          "name": "tokenPrice",
          "type": "uint256"
        },
        {
          "indexed": false,
          "name": "ethAmount",
          "type": "uint256"
        },
        {
          "indexed": false,
          "name": "price",
          "type": "uint256"
        },
        {
          "indexed": false,
          "name": "discountPrice",
          "type": "uint256"
        },
        {
          "indexed": false,
          "name": "fileHash",
          "type": "string"
        }
      ],
      "name": "BuyWithToken",
      "type": "event"
    },
    {
      "anonymous": false,
      "inputs": [
        {
          "indexed": true,
          "name": "buyerAddress",
          "type": "address"
        },
        {
          "indexed": true,
          "name": "to",
          "type": "address"
        },
        {
          "indexed": false,
          "name": "amount",
          "type": "uint256"
        }
      ],
      "name": "Transfer",
      "type": "event"
    },
    {
      "anonymous": false,
      "inputs": [
        {
          "indexed": true,
          "name": "buyerAddress",
          "type": "address"
        },
        {
          "indexed": true,
          "name": "to",
          "type": "address"
        },
        {
          "indexed": false,
          "name": "amount",
          "type": "uint256"
        }
      ],
      "name": "TransferToken",
      "type": "event"
    },
    {
      "anonymous": false,
      "inputs": [
        {
          "indexed": true,
          "name": "buyerAddress",
          "type": "address"
        },
        {
          "indexed": false,
          "name": "fileHash",
          "type": "string"
        }
      ],
      "name": "GetFile",
      "type": "event"
    },
    {
      "constant": false,
      "inputs": [
        {
          "name": "_title",
          "type": "string"
        },
        {
          "name": "_description",
          "type": "string"
        },
        {
          "name": "_keywords",
          "type": "string"
        },
        {
          "name": "_previewFileHash",
          "type": "string"
        }
      ],
      "name": "setMetaInfo",
      "outputs": [],
      "payable": false,
      "stateMutability": "nonpayable",
      "type": "function"
    },
    {
      "constant": false,
      "inputs": [
        {
          "name": "_authorAddress",
          "type": "address"
        }
      ],
      "name": "setAuthor",
      "outputs": [],
      "payable": false,
      "stateMutability": "nonpayable",
      "type": "function"
    },
    {
      "constant": false,
      "inputs": [
        {
          "name": "buyerName",
          "type": "string"
        }
      ],
      "name": "buy",
      "outputs": [
        {
          "name": "_fileHash",
          "type": "string"
        }
      ],
      "payable": true,
      "stateMutability": "payable",
      "type": "function"
    },
    {
      "constant": false,
      "inputs": [
        {
          "name": "_from",
          "type": "address"
        },
        {
          "name": "_value",
          "type": "uint256"
        },
        {
          "name": "_token",
          "type": "address"
        },
        {
          "name": "_extraData",
          "type": "bytes"
        }
      ],
      "name": "receiveApproval",
      "outputs": [],
      "payable": false,
      "stateMutability": "nonpayable",
      "type": "function"
    },
    {
      "constant": false,
      "inputs": [],
      "name": "getFile",
      "outputs": [
        {
          "name": "_fileHash",
          "type": "string"
        }
      ],
      "payable": false,
      "stateMutability": "nonpayable",
      "type": "function"
    },
    {
      "constant": true,
      "inputs": [
        {
          "name": "_buyerName",
          "type": "string"
        }
      ],
      "name": "verifyBuyerName",
      "outputs": [
        {
          "name": "verified",
          "type": "bool"
        }
      ],
      "payable": false,
      "stateMutability": "view",
      "type": "function"
    },
    {
      "constant": true,
      "inputs": [
        {
          "name": "_buyerAddress",
          "type": "address"
        }
      ],
      "name": "verifyBuyerAddress",
      "outputs": [
        {
          "name": "verified",
          "type": "bool"
        }
      ],
      "payable": false,
      "stateMutability": "view",
      "type": "function"
    }
  ],
  "bytecode": "0x606060405234156200001057600080fd5b604051620020633803806200206383398101604052808051820191906020018051906020019091908051820191906020018051906020019091905050336000806101000a81548173ffffffffffffffffffffffffffffffffffffffff021916908373ffffffffffffffffffffffffffffffffffffffff1602179055508360039080519060200190620000a492919062000110565b5082600260006101000a81548173ffffffffffffffffffffffffffffffffffffffff021916908373ffffffffffffffffffffffffffffffffffffffff1602179055508160019080519060200190620000fe92919062000110565b508060058190555050505050620001bf565b828054600181600116156101000203166002900490600052602060002090601f016020900481019282601f106200015357805160ff191683800117855562000184565b8280016001018555821562000184579182015b828111156200018357825182559160200191906001019062000166565b5b50905062000193919062000197565b5090565b620001bc91905b80821115620001b85760008160009055506001016200019e565b5090565b90565b611e9480620001cf6000396000f3006060604052600436106100e6576000357c0100000000000000000000000000000000000000000000000000000000900463ffffffff1680632fa81692146100eb578063492cc769146101795780634a79d50c146102445780635ecdbc35146102d25780636a64aabb146103235780637284e416146103b1578063729acff41461043f5780638da5cb5b146104cd5780638f4ffcb114610522578063a035b1fe146105c6578063a05f41a4146105ef578063a6c3e6b914610628578063a75e28471461067d578063ade4ce6a1461070b578063e5b328b314610780578063f2fde38b146108a6575b600080fd5b34156100f657600080fd5b6100fe6108df565b6040518080602001828103825283818151815260200191508051906020019080838360005b8381101561013e578082015181840152602081019050610123565b50505050905090810190601f16801561016b5780820380516001836020036101000a031916815260200191505b509250505060405180910390f35b6101c9600480803590602001908201803590602001908080601f01602080910402602001604051908101604052809392919081815260200183838082843782019150505050505091905050610aa7565b6040518080602001828103825283818151815260200191508051906020019080838360005b838110156102095780820151818401526020810190506101ee565b50505050905090810190601f1680156102365780820380516001836020036101000a031916815260200191505b509250505060405180910390f35b341561024f57600080fd5b610257610f5c565b6040518080602001828103825283818151815260200191508051906020019080838360005b8381101561029757808201518184015260208101905061027c565b50505050905090810190601f1680156102c45780820380516001836020036101000a031916815260200191505b509250505060405180910390f35b34156102dd57600080fd5b610309600480803573ffffffffffffffffffffffffffffffffffffffff16906020019091905050610ffa565b604051808215151515815260200191505060405180910390f35b341561032e57600080fd5b610336611046565b6040518080602001828103825283818151815260200191508051906020019080838360005b8381101561037657808201518184015260208101905061035b565b50505050905090810190601f1680156103a35780820380516001836020036101000a031916815260200191505b509250505060405180910390f35b34156103bc57600080fd5b6103c46110e4565b6040518080602001828103825283818151815260200191508051906020019080838360005b838110156104045780820151818401526020810190506103e9565b50505050905090810190601f1680156104315780820380516001836020036101000a031916815260200191505b509250505060405180910390f35b341561044a57600080fd5b610452611182565b6040518080602001828103825283818151815260200191508051906020019080838360005b83811015610492578082015181840152602081019050610477565b50505050905090810190601f1680156104bf5780820380516001836020036101000a031916815260200191505b509250505060405180910390f35b34156104d857600080fd5b6104e0611220565b604051808273ffffffffffffffffffffffffffffffffffffffff1673ffffffffffffffffffffffffffffffffffffffff16815260200191505060405180910390f35b341561052d57600080fd5b6105c4600480803573ffffffffffffffffffffffffffffffffffffffff1690602001909190803590602001909190803573ffffffffffffffffffffffffffffffffffffffff1690602001909190803590602001908201803590602001908080601f01602080910402602001604051908101604052809392919081815260200183838082843782019150505050505091905050611245565b005b34156105d157600080fd5b6105d9611a69565b6040518082815260200191505060405180910390f35b34156105fa57600080fd5b610626600480803573ffffffffffffffffffffffffffffffffffffffff16906020019091905050611a6f565b005b341561063357600080fd5b61063b611b0e565b604051808273ffffffffffffffffffffffffffffffffffffffff1673ffffffffffffffffffffffffffffffffffffffff16815260200191505060405180910390f35b341561068857600080fd5b610690611b34565b6040518080602001828103825283818151815260200191508051906020019080838360005b838110156106d05780820151818401526020810190506106b5565b50505050905090810190601f1680156106fd5780820380516001836020036101000a031916815260200191505b509250505060405180910390f35b341561071657600080fd5b610766600480803590602001908201803590602001908080601f01602080910402602001604051908101604052809392919081815260200183838082843782019150505050505091905050611bd2565b604051808215151515815260200191505060405180910390f35b341561078b57600080fd5b6108a4600480803590602001908201803590602001908080601f0160208091040260200160405190810160405280939291908181526020018383808284378201915050505050509190803590602001908201803590602001908080601f0160208091040260200160405190810160405280939291908181526020018383808284378201915050505050509190803590602001908201803590602001908080601f0160208091040260200160405190810160405280939291908181526020018383808284378201915050505050509190803590602001908201803590602001908080601f01602080910402602001604051908101604052809392919081815260200183838082843782019150505050505091905050611c54565b005b34156108b157600080fd5b6108dd600480803573ffffffffffffffffffffffffffffffffffffffff16906020019091905050611d11565b005b6108e7611daf565b6000600960003373ffffffffffffffffffffffffffffffffffffffff1673ffffffffffffffffffffffffffffffffffffffff168152602001908152602001600020541415151561093657600080fd5b3373ffffffffffffffffffffffffffffffffffffffff167f1b3fe7e88b654f891e3784bb6610351f40123e487bf6ef019458e7f5cd7beade600360405180806020018281038252838181546001816001161561010002031660029004815260200191508054600181600116156101000203166002900480156109f95780601f106109ce576101008083540402835291602001916109f9565b820191906000526020600020905b8154815290600101906020018083116109dc57829003601f168201915b50509250505060405180910390a260038054600181600116156101000203166002900480601f016020809104026020016040519081016040528092919081815260200182805460018160011615610100020316600290048015610a9d5780601f10610a7257610100808354040283529160200191610a9d565b820191906000526020600020905b815481529060010190602001808311610a8057829003601f168201915b5050505050905090565b610aaf611daf565b6000806005543410151515610ac357600080fd5b34600960003373ffffffffffffffffffffffffffffffffffffffff1673ffffffffffffffffffffffffffffffffffffffff168152602001908152602001600020819055506001600a856040518082805190602001908083835b602083101515610b415780518252602082019150602081019050602083039250610b1c565b6001836020036101000a038019825116818451168082178552505050505050905001915050908152602001604051809103902060006101000a81548160ff0219169083151502179055503373ffffffffffffffffffffffffffffffffffffffff167f562514bad2da4ff399bd32efdf7d1e11c83def9768530e75f74a6f94724a689d85346003604051808060200184815260200180602001838103835286818151815260200191508051906020019080838360005b83811015610c11578082015181840152602081019050610bf6565b50505050905090810190601f168015610c3e5780820380516001836020036101000a031916815260200191505b50838103825284818154600181600116156101000203166002900481526020019150805460018160011615610100020316600290048015610cc05780601f10610c9557610100808354040283529160200191610cc0565b820191906000526020600020905b815481529060010190602001808311610ca357829003601f168201915b50509550505050505060405180910390a2600a60093402811515610ce057fe5b0491508134039050600260009054906101000a900473ffffffffffffffffffffffffffffffffffffffff1673ffffffffffffffffffffffffffffffffffffffff166108fc839081150290604051600060405180830381858888f193505050501515610d4a57600080fd5b600260009054906101000a900473ffffffffffffffffffffffffffffffffffffffff1673ffffffffffffffffffffffffffffffffffffffff163373ffffffffffffffffffffffffffffffffffffffff167fddf252ad1be2c89b69c2b068fc378daa952ba7f163c4a11628f55a4df523b3ef846040518082815260200191505060405180910390a36000809054906101000a900473ffffffffffffffffffffffffffffffffffffffff1673ffffffffffffffffffffffffffffffffffffffff166108fc829081150290604051600060405180830381858888f193505050501515610e3257600080fd5b6000809054906101000a900473ffffffffffffffffffffffffffffffffffffffff1673ffffffffffffffffffffffffffffffffffffffff163373ffffffffffffffffffffffffffffffffffffffff167fddf252ad1be2c89b69c2b068fc378daa952ba7f163c4a11628f55a4df523b3ef836040518082815260200191505060405180910390a360038054600181600116156101000203166002900480601f016020809104026020016040519081016040528092919081815260200182805460018160011615610100020316600290048015610f4e5780601f10610f2357610100808354040283529160200191610f4e565b820191906000526020600020905b815481529060010190602001808311610f3157829003601f168201915b505050505092505050919050565b60068054600181600116156101000203166002900480601f016020809104026020016040519081016040528092919081815260200182805460018160011615610100020316600290048015610ff25780601f10610fc757610100808354040283529160200191610ff2565b820191906000526020600020905b815481529060010190602001808311610fd557829003601f168201915b505050505081565b600080600960008473ffffffffffffffffffffffffffffffffffffffff1673ffffffffffffffffffffffffffffffffffffffff1681526020019081526020016000205414159050919050565b60018054600181600116156101000203166002900480601f0160208091040260200160405190810160405280929190818152602001828054600181600116156101000203166002900480156110dc5780601f106110b1576101008083540402835291602001916110dc565b820191906000526020600020905b8154815290600101906020018083116110bf57829003601f168201915b505050505081565b60078054600181600116156101000203166002900480601f01602080910402602001604051908101604052809291908181526020018280546001816001161561010002031660029004801561117a5780601f1061114f5761010080835404028352916020019161117a565b820191906000526020600020905b81548152906001019060200180831161115d57829003601f168201915b505050505081565b60088054600181600116156101000203166002900480601f0160208091040260200160405190810160405280929190818152602001828054600181600116156101000203166002900480156112185780601f106111ed57610100808354040283529160200191611218565b820191906000526020600020905b8154815290600101906020018083116111fb57829003601f168201915b505050505081565b6000809054906101000a900473ffffffffffffffffffffffffffffffffffffffff1681565b600080600080600080600080611259611daf565b6000809054906101000a900473ffffffffffffffffffffffffffffffffffffffff1698508873ffffffffffffffffffffffffffffffffffffffff16639d76ea586000604051602001526040518163ffffffff167c0100000000000000000000000000000000000000000000000000000000028152600401602060405180830381600087803b15156112e957600080fd5b6102c65a03f115156112fa57600080fd5b5050506040518051905097508a73ffffffffffffffffffffffffffffffffffffffff168873ffffffffffffffffffffffffffffffffffffffff1614151561133d57fe5b8796508873ffffffffffffffffffffffffffffffffffffffff166398d5fdca6000604051602001526040518163ffffffff167c0100000000000000000000000000000000000000000000000000000000028152600401602060405180830381600087803b15156113ac57600080fd5b6102c65a03f115156113bd57600080fd5b505050604051805190509550670de0b6b3a7640000868d028115156113de57fe5b049450600a6009600554028115156113f257fe5b04935083851015151561140157fe5b600a60098d0281151561141057fe5b049250828c0391508b8773ffffffffffffffffffffffffffffffffffffffff166370a082318f6000604051602001526040518263ffffffff167c0100000000000000000000000000000000000000000000000000000000028152600401808273ffffffffffffffffffffffffffffffffffffffff1673ffffffffffffffffffffffffffffffffffffffff168152602001915050602060405180830381600087803b15156114bc57600080fd5b6102c65a03f115156114cd57600080fd5b50505060405180519050101515156114e157fe5b8673ffffffffffffffffffffffffffffffffffffffff166323b872dd8e600260009054906101000a900473ffffffffffffffffffffffffffffffffffffffff16866000604051602001526040518463ffffffff167c0100000000000000000000000000000000000000000000000000000000028152600401808473ffffffffffffffffffffffffffffffffffffffff1673ffffffffffffffffffffffffffffffffffffffff1681526020018373ffffffffffffffffffffffffffffffffffffffff1673ffffffffffffffffffffffffffffffffffffffff1681526020018281526020019350505050602060405180830381600087803b15156115e257600080fd5b6102c65a03f115156115f357600080fd5b5050506040518051905050600260009054906101000a900473ffffffffffffffffffffffffffffffffffffffff1673ffffffffffffffffffffffffffffffffffffffff168d73ffffffffffffffffffffffffffffffffffffffff167f3844b7075ed6e7d4b61342769cb2b1b325cba410a62932affaa90aee247dadf5856040518082815260200191505060405180910390a38673ffffffffffffffffffffffffffffffffffffffff166323b872dd8e6000809054906101000a900473ffffffffffffffffffffffffffffffffffffffff16856000604051602001526040518463ffffffff167c0100000000000000000000000000000000000000000000000000000000028152600401808473ffffffffffffffffffffffffffffffffffffffff1673ffffffffffffffffffffffffffffffffffffffff1681526020018373ffffffffffffffffffffffffffffffffffffffff1673ffffffffffffffffffffffffffffffffffffffff1681526020018281526020019350505050602060405180830381600087803b151561178557600080fd5b6102c65a03f1151561179657600080fd5b50505060405180519050506000809054906101000a900473ffffffffffffffffffffffffffffffffffffffff1673ffffffffffffffffffffffffffffffffffffffff168d73ffffffffffffffffffffffffffffffffffffffff167f3844b7075ed6e7d4b61342769cb2b1b325cba410a62932affaa90aee247dadf5846040518082815260200191505060405180910390a384600960008f73ffffffffffffffffffffffffffffffffffffffff1673ffffffffffffffffffffffffffffffffffffffff168152602001908152602001600020819055508990506001600a826040518082805190602001908083835b6020831015156118a85780518252602082019150602081019050602083039250611883565b6001836020036101000a038019825116818451168082178552505050505050905001915050908152602001604051809103902060006101000a81548160ff0219169083151502179055508c73ffffffffffffffffffffffffffffffffffffffff167f1e9d254680664f2ae4782f7ba78df303ce24bac876f0652b71f3b0e80a5c2fbd828e89896005548a600360405180806020018881526020018781526020018681526020018581526020018481526020018060200183810383528a818151815260200191508051906020019080838360005b8381101561199657808201518184015260208101905061197b565b50505050905090810190601f1680156119c35780820380516001836020036101000a031916815260200191505b50838103825284818154600181600116156101000203166002900481526020019150805460018160011615610100020316600290048015611a455780601f10611a1a57610100808354040283529160200191611a45565b820191906000526020600020905b815481529060010190602001808311611a2857829003601f168201915b5050995050505050505050505060405180910390a250505050505050505050505050565b60055481565b6000809054906101000a900473ffffffffffffffffffffffffffffffffffffffff1673ffffffffffffffffffffffffffffffffffffffff163373ffffffffffffffffffffffffffffffffffffffff16141515611aca57600080fd5b80600260006101000a81548173ffffffffffffffffffffffffffffffffffffffff021916908373ffffffffffffffffffffffffffffffffffffffff16021790555050565b600260009054906101000a900473ffffffffffffffffffffffffffffffffffffffff1681565b60048054600181600116156101000203166002900480601f016020809104026020016040519081016040528092919081815260200182805460018160011615610100020316600290048015611bca5780601f10611b9f57610100808354040283529160200191611bca565b820191906000526020600020905b815481529060010190602001808311611bad57829003601f168201915b505050505081565b6000600a826040518082805190602001908083835b602083101515611c0c5780518252602082019150602081019050602083039250611be7565b6001836020036101000a038019825116818451168082178552505050505050905001915050908152602001604051809103902060009054906101000a900460ff169050919050565b6000809054906101000a900473ffffffffffffffffffffffffffffffffffffffff1673ffffffffffffffffffffffffffffffffffffffff163373ffffffffffffffffffffffffffffffffffffffff16141515611caf57600080fd5b8360069080519060200190611cc5929190611dc3565b508260079080519060200190611cdc929190611dc3565b508160089080519060200190611cf3929190611dc3565b508060049080519060200190611d0a929190611dc3565b5050505050565b6000809054906101000a900473ffffffffffffffffffffffffffffffffffffffff1673ffffffffffffffffffffffffffffffffffffffff163373ffffffffffffffffffffffffffffffffffffffff16141515611d6c57600080fd5b806000806101000a81548173ffffffffffffffffffffffffffffffffffffffff021916908373ffffffffffffffffffffffffffffffffffffffff16021790555050565b602060405190810160405280600081525090565b828054600181600116156101000203166002900490600052602060002090601f016020900481019282601f10611e0457805160ff1916838001178555611e32565b82800160010185558215611e32579182015b82811115611e31578251825591602001919060010190611e16565b5b509050611e3f9190611e43565b5090565b611e6591905b80821115611e61576000816000905550600101611e49565b5090565b905600a165627a7a72305820b56803b6c3126c6aac2f27489145131829434dcc41f27495291440303f6cf41f0029",
  "source": "pragma solidity ^0.4.18;\n\nimport \"./owned.sol\";\nimport \"./CRCRegister.sol\";\nimport \"./ChainStockToken.sol\";\n\ncontract CopyRightContract is owned, tokenRecipient {\n    string public authorName;\n    address public author;\n    string fileHash;\n    string public previewFileHash;\n    uint256 public price; //以ETH Wei定价\n    string public title;\n    string public description;\n    string public keywords;\n    \n    mapping (address => uint256) private buyerAddresses;\n    mapping (string => bool) private buyerNames;\n\n    event Buy(address indexed buyerAddress, string  buyerName, uint256 price, string fileHash);\n    event BuyWithToken(address indexed buyerAddress, string  buyerName, uint256 tokenAmount, uint256 tokenPrice, uint256 ethAmount, uint256 price, uint discountPrice, string fileHash);\n    event Transfer(address indexed buyerAddress, address indexed to, uint256 amount);\n    event TransferToken(address indexed buyerAddress, address indexed to, uint256 amount);\n    event GetFile(address indexed buyerAddress, string fileHash);\n\n    function CopyRightContract(\n        string _fileHash,\n        address _authorAddress,\n        string _authorName,\n        uint _price\n        ) public {\n        fileHash = _fileHash;\n        author = _authorAddress;\n        authorName = _authorName;\n        price = _price;\n    }\n\n    function setMetaInfo(\n        string _title, \n        string  _description, \n        string _keywords, \n        string _previewFileHash) \n        public onlyOwner{\n        title = _title;\n        description = _description;\n        keywords = _keywords;\n        previewFileHash = _previewFileHash;\n    }\n\n    function setAuthor(address _authorAddress) public onlyOwner{\n        author = _authorAddress;\n    }\n\n    \n    function buy(string buyerName) payable public returns(string _fileHash) {\n        require(msg.value >= price);\n        buyerAddresses[msg.sender] = msg.value;\n        buyerNames[buyerName] = true;\n        Buy(msg.sender, buyerName, msg.value, fileHash);\n        \n        //9:1分成，作者拿9\n        uint256 authorIncome = uint256(msg.value*9/10);\n        uint256 ownerIncome = msg.value - authorIncome;\n        \n        //转账给作者\n        author.transfer(authorIncome);\n        Transfer(msg.sender, author, authorIncome);\n        \n        //转账给合约创建者（平台）\n        owner.transfer(ownerIncome);\n        Transfer(msg.sender, owner, ownerIncome);\n\n        return fileHash;\n    }\n\n    function receiveApproval(address _from, uint256 _value, address _token, bytes _extraData) public {\n        //查找token地址\n        CRCRegister register = CRCRegister(owner);\n        address tokenAddress = register.tokenAddress();\n        assert(tokenAddress == _token);\n\n        ChainStockToken cst = ChainStockToken(tokenAddress);\n        \n        //查询token汇率\n        uint256 tokenPrice = register.getPrice();\n        uint256 ethValue = uint256(_value * tokenPrice/10**18);\n        uint256 discountPrice = price*9/10;\n        //用token买打九折\n        assert(ethValue >= discountPrice);\n\n        //9:1分成，作者拿9\n        uint256 authorIncome = uint256(_value*9/10);\n        uint256 ownerIncome = _value - authorIncome;\n\n        assert(cst.balanceOf(_from) >= _value);\n        \n        //转账给作者\n        cst.transferFrom(_from, author, authorIncome);\n        TransferToken(_from, author, authorIncome);\n        \n        //转账给合约创建者（平台）\n        cst.transferFrom(_from, owner, ownerIncome);\n        TransferToken(_from, owner, ownerIncome);\n\n        buyerAddresses[_from] = ethValue;\n        string memory buyerName = string(_extraData);\n        buyerNames[buyerName] = true;\n        BuyWithToken(_from, buyerName, _value, tokenPrice, ethValue, price, discountPrice, fileHash);\n    }\n    \n    function getFile() public returns(string _fileHash) {\n        require(buyerAddresses[msg.sender] != 0);\n        GetFile(msg.sender, fileHash);\n        return fileHash;\n    }\n    \n    function verifyBuyerName(string _buyerName) public constant returns(bool verified){\n        return buyerNames[_buyerName];\n    }\n    \n    function verifyBuyerAddress(address _buyerAddress) public constant returns(bool verified){\n        return buyerAddresses[_buyerAddress] != 0;\n    }\n}",
  "sourcePath": "/Users/phx/eth/chainstock/contracts/CopyRightContract.sol",
  "compiler": {
    "name": "solc",
    "version": "0.4.19+commit.c4cbbb05.Emscripten.clang"
  },
  "schemaVersion": "1.0.1",
  "updatedAt": "2018-02-27T15:00:32.033Z"
}