{
  "contractName": "CRCRegister",
  "abi": [
    {
      "constant": true,
      "inputs": [
        {
          "name": "author",
          "type": "address"
        },
        {
          "name": "start",
          "type": "uint256"
        },
        {
          "name": "length",
          "type": "uint256"
        }
      ],
      "name": "listByAuthor",
      "outputs": [
        {
          "name": "_fileContracts",
          "type": "address[]"
        }
      ],
      "payable": false,
      "stateMutability": "view",
      "type": "function"
    },
    {
      "constant": true,
      "inputs": [
        {
          "name": "",
          "type": "address"
        }
      ],
      "name": "contractAuthor",
      "outputs": [
        {
          "name": "",
          "type": "address"
        }
      ],
      "payable": false,
      "stateMutability": "view",
      "type": "function"
    },
    {
      "constant": false,
      "inputs": [
        {
          "name": "crContract",
          "type": "address"
        },
        {
          "name": "title",
          "type": "string"
        },
        {
          "name": "description",
          "type": "string"
        },
        {
          "name": "keywords",
          "type": "string"
        },
        {
          "name": "previewFileHash",
          "type": "string"
        }
      ],
      "name": "updateContractInfo",
      "outputs": [],
      "payable": false,
      "stateMutability": "nonpayable",
      "type": "function"
    },
    {
      "constant": true,
      "inputs": [
        {
          "name": "start",
          "type": "uint256"
        },
        {
          "name": "length",
          "type": "uint256"
        },
        {
          "name": "reverse",
          "type": "bool"
        }
      ],
      "name": "list",
      "outputs": [
        {
          "name": "_fileContracts",
          "type": "address[]"
        }
      ],
      "payable": false,
      "stateMutability": "view",
      "type": "function"
    },
    {
      "constant": true,
      "inputs": [
        {
          "name": "",
          "type": "uint256"
        }
      ],
      "name": "fileContracts",
      "outputs": [
        {
          "name": "",
          "type": "address"
        }
      ],
      "payable": false,
      "stateMutability": "view",
      "type": "function"
    },
    {
      "constant": true,
      "inputs": [],
      "name": "owner",
      "outputs": [
        {
          "name": "",
          "type": "address"
        }
      ],
      "payable": false,
      "stateMutability": "view",
      "type": "function"
    },
    {
      "constant": true,
      "inputs": [],
      "name": "tokenAddress",
      "outputs": [
        {
          "name": "",
          "type": "address"
        }
      ],
      "payable": false,
      "stateMutability": "view",
      "type": "function"
    },
    {
      "constant": false,
      "inputs": [],
      "name": "CopyRightContractRegister",
      "outputs": [],
      "payable": false,
      "stateMutability": "nonpayable",
      "type": "function"
    },
    {
      "constant": false,
      "inputs": [
        {
          "name": "fileHash",
          "type": "string"
        },
        {
          "name": "authorName",
          "type": "string"
        },
        {
          "name": "price",
          "type": "uint256"
        }
      ],
      "name": "register",
      "outputs": [
        {
          "name": "_fileContract",
          "type": "address"
        }
      ],
      "payable": false,
      "stateMutability": "nonpayable",
      "type": "function"
    },
    {
      "constant": false,
      "inputs": [
        {
          "name": "newOwner",
          "type": "address"
        }
      ],
      "name": "transferOwnership",
      "outputs": [],
      "payable": false,
      "stateMutability": "nonpayable",
      "type": "function"
    },
    {
      "constant": true,
      "inputs": [
        {
          "name": "",
          "type": "address"
        },
        {
          "name": "",
          "type": "uint256"
        }
      ],
      "name": "authorContracts",
      "outputs": [
        {
          "name": "",
          "type": "address"
        }
      ],
      "payable": false,
      "stateMutability": "view",
      "type": "function"
    },
    {
      "payable": true,
      "stateMutability": "payable",
      "type": "fallback"
    },
    {
      "anonymous": false,
      "inputs": [
        {
          "indexed": true,
          "name": "author",
          "type": "address"
        },
        {
          "indexed": false,
          "name": "authorName",
          "type": "string"
        },
        {
          "indexed": false,
          "name": "price",
          "type": "uint256"
        },
        {
          "indexed": true,
          "name": "crContract",
          "type": "address"
        }
      ],
      "name": "Register",
      "type": "event"
    },
    {
      "anonymous": false,
      "inputs": [
        {
          "indexed": false,
          "name": "from",
          "type": "address"
        },
        {
          "indexed": false,
          "name": "amount",
          "type": "uint256"
        }
      ],
      "name": "Paied",
      "type": "event"
    },
    {
      "anonymous": false,
      "inputs": [
        {
          "indexed": true,
          "name": "crContract",
          "type": "address"
        },
        {
          "indexed": false,
          "name": "title",
          "type": "string"
        },
        {
          "indexed": false,
          "name": "description",
          "type": "string"
        },
        {
          "indexed": false,
          "name": "keywords",
          "type": "string"
        },
        {
          "indexed": false,
          "name": "previewFileHash",
          "type": "string"
        }
      ],
      "name": "UpdateContractInfo",
      "type": "event"
    },
    {
      "anonymous": false,
      "inputs": [
        {
          "indexed": false,
          "name": "tokenAddress",
          "type": "address"
        }
      ],
      "name": "SetTokenAddress",
      "type": "event"
    },
    {
      "anonymous": false,
      "inputs": [
        {
          "indexed": false,
          "name": "author",
          "type": "address"
        },
        {
          "indexed": false,
          "name": "tokenAwarded",
          "type": "uint256"
        },
        {
          "indexed": false,
          "name": "reservedTokenAmount",
          "type": "uint256"
        },
        {
          "indexed": false,
          "name": "totalSupply",
          "type": "uint256"
        }
      ],
      "name": "AwardToken",
      "type": "event"
    },
    {
      "anonymous": false,
      "inputs": [
        {
          "indexed": false,
          "name": "buyer",
          "type": "address"
        },
        {
          "indexed": false,
          "name": "value",
          "type": "uint256"
        },
        {
          "indexed": false,
          "name": "tokenAmount",
          "type": "uint256"
        },
        {
          "indexed": false,
          "name": "buyPrice",
          "type": "uint256"
        },
        {
          "indexed": false,
          "name": "tokenAddress",
          "type": "address"
        }
      ],
      "name": "Buy",
      "type": "event"
    },
    {
      "anonymous": false,
      "inputs": [
        {
          "indexed": false,
          "name": "seller",
          "type": "address"
        },
        {
          "indexed": false,
          "name": "tokenAmount",
          "type": "uint256"
        },
        {
          "indexed": false,
          "name": "value",
          "type": "uint256"
        },
        {
          "indexed": false,
          "name": "sellPrice",
          "type": "uint256"
        },
        {
          "indexed": false,
          "name": "tokenAddress",
          "type": "address"
        }
      ],
      "name": "Sell",
      "type": "event"
    },
    {
      "anonymous": false,
      "inputs": [
        {
          "indexed": false,
          "name": "total",
          "type": "uint256"
        },
        {
          "indexed": false,
          "name": "reservedToken",
          "type": "uint256"
        },
        {
          "indexed": false,
          "name": "reservedEth",
          "type": "uint256"
        },
        {
          "indexed": false,
          "name": "marketToken",
          "type": "uint256"
        },
        {
          "indexed": false,
          "name": "price",
          "type": "uint256"
        }
      ],
      "name": "GetPrice",
      "type": "event"
    },
    {
      "constant": false,
      "inputs": [],
      "name": "getPrice",
      "outputs": [
        {
          "name": "price",
          "type": "uint256"
        }
      ],
      "payable": false,
      "stateMutability": "nonpayable",
      "type": "function"
    },
    {
      "constant": false,
      "inputs": [],
      "name": "buy",
      "outputs": [],
      "payable": true,
      "stateMutability": "payable",
      "type": "function"
    },
    {
      "constant": false,
      "inputs": [
        {
          "name": "_from",
          "type": "address"
        },
        {
          "name": "_amount",
          "type": "uint256"
        },
        {
          "name": "_token",
          "type": "address"
        },
        {
          "name": "_extraData",
          "type": "bytes"
        }
      ],
      "name": "receiveApproval",
      "outputs": [],
      "payable": false,
      "stateMutability": "nonpayable",
      "type": "function"
    },
    {
      "constant": false,
      "inputs": [
        {
          "name": "_tokenAddress",
          "type": "address"
        }
      ],
      "name": "setTokenAddress",
      "outputs": [],
      "payable": false,
      "stateMutability": "nonpayable",
      "type": "function"
    }
  ],
  "bytecode": "0x6060604052336000806101000a81548173ffffffffffffffffffffffffffffffffffffffff021916908373ffffffffffffffffffffffffffffffffffffffff1602179055506144e0806100536000396000f300606060405260043610620000eb576000357c0100000000000000000000000000000000000000000000000000000000900463ffffffff168063015a44df146200015857806326a4e8d214620001fd5780632905a3b7146200023957806334c221ed14620002b55780634a176a8114620003fd57806372ac5213146200048e5780638da5cb5b14620004f45780638f4ffcb1146200054c57806398d5fdca14620005f35780639d76ea58146200061f578063a6f2ae3a1462000677578063bfd37d251462000683578063e8a60558146200069b578063f2fde38b1462000787578063fb9ca8ac14620007c3575b7f6ba9df9d92498f70e3ce503a61655f967479ba67129d4333e347a87c5c29b8943334604051808373ffffffffffffffffffffffffffffffffffffffff1673ffffffffffffffffffffffffffffffffffffffff1681526020018281526020019250505060405180910390a1005b34156200016457600080fd5b620001a4600480803573ffffffffffffffffffffffffffffffffffffffff1690602001909190803590602001909190803590602001909190505062000848565b6040518080602001828103825283818151815260200191508051906020019060200280838360005b83811015620001e9578082015181840152602081019050620001cc565b505050509050019250505060405180910390f35b34156200020957600080fd5b62000237600480803573ffffffffffffffffffffffffffffffffffffffff1690602001909190505062000a38565b005b34156200024557600080fd5b62000273600480803573ffffffffffffffffffffffffffffffffffffffff1690602001909190505062000b5d565b604051808273ffffffffffffffffffffffffffffffffffffffff1673ffffffffffffffffffffffffffffffffffffffff16815260200191505060405180910390f35b3415620002c157600080fd5b620003fb600480803573ffffffffffffffffffffffffffffffffffffffff1690602001909190803590602001908201803590602001908080601f0160208091040260200160405190810160405280939291908181526020018383808284378201915050505050509190803590602001908201803590602001908080601f0160208091040260200160405190810160405280939291908181526020018383808284378201915050505050509190803590602001908201803590602001908080601f0160208091040260200160405190810160405280939291908181526020018383808284378201915050505050509190803590602001908201803590602001908080601f0160208091040260200160405190810160405280939291908181526020018383808284378201915050505050509190505062000b90565b005b34156200040957600080fd5b620004356004808035906020019091908035906020019091908035151590602001909190505062001079565b6040518080602001828103825283818151815260200191508051906020019060200280838360005b838110156200047a5780820151818401526020810190506200045d565b505050509050019250505060405180910390f35b34156200049a57600080fd5b620004b26004808035906020019091905050620011d6565b604051808273ffffffffffffffffffffffffffffffffffffffff1673ffffffffffffffffffffffffffffffffffffffff16815260200191505060405180910390f35b34156200050057600080fd5b6200050a62001216565b604051808273ffffffffffffffffffffffffffffffffffffffff1673ffffffffffffffffffffffffffffffffffffffff16815260200191505060405180910390f35b34156200055857600080fd5b620005f1600480803573ffffffffffffffffffffffffffffffffffffffff1690602001909190803590602001909190803573ffffffffffffffffffffffffffffffffffffffff1690602001909190803590602001908201803590602001908080601f016020809104026020016040519081016040528093929190818152602001838380828437820191505050505050919050506200123b565b005b3415620005ff57600080fd5b62000609620016ef565b6040518082815260200191505060405180910390f35b34156200062b57600080fd5b6200063562001924565b604051808273ffffffffffffffffffffffffffffffffffffffff1673ffffffffffffffffffffffffffffffffffffffff16815260200191505060405180910390f35b620006816200194a565b005b34156200068f57600080fd5b6200069962001b27565b005b3415620006a757600080fd5b62000745600480803590602001908201803590602001908080601f0160208091040260200160405190810160405280939291908181526020018383808284378201915050505050509190803590602001908201803590602001908080601f0160208091040260200160405190810160405280939291908181526020018383808284378201915050505050509190803590602001909190505062001b29565b604051808273ffffffffffffffffffffffffffffffffffffffff1673ffffffffffffffffffffffffffffffffffffffff16815260200191505060405180910390f35b34156200079357600080fd5b620007c1600480803573ffffffffffffffffffffffffffffffffffffffff1690602001909190505062001ee0565b005b3415620007cf57600080fd5b62000806600480803573ffffffffffffffffffffffffffffffffffffffff1690602001909190803590602001909190505062001f7f565b604051808273ffffffffffffffffffffffffffffffffffffffff1673ffffffffffffffffffffffffffffffffffffffff16815260200191505060405180910390f35b62000852620023d5565b6200085c620023d5565b62000866620023d5565b6000600460008873ffffffffffffffffffffffffffffffffffffffff1673ffffffffffffffffffffffffffffffffffffffff1681526020019081526020016000208054806020026020016040519081016040528092919081815260200182805480156200092957602002820191906000526020600020905b8160009054906101000a900473ffffffffffffffffffffffffffffffffffffffff1673ffffffffffffffffffffffffffffffffffffffff1681526020019060010190808311620008de575b5050505050925060008610158015620009425750825186105b15156200094e57600080fd5b6000851015801562000961575060148511155b15156200096d57600080fd5b8583510385111562000980578583510394505b846040518059106200098f5750595b90808252806020026020018201604052509150600090505b848160ff16101562000a2b57828160ff168701815181101515620009c757fe5b90602001906020020151828260ff16815181101515620009e357fe5b9060200190602002019073ffffffffffffffffffffffffffffffffffffffff16908173ffffffffffffffffffffffffffffffffffffffff1681525050600181019050620009a7565b8193505050509392505050565b6000809054906101000a900473ffffffffffffffffffffffffffffffffffffffff1673ffffffffffffffffffffffffffffffffffffffff163373ffffffffffffffffffffffffffffffffffffffff1614151562000a9457600080fd5b80600160006101000a81548173ffffffffffffffffffffffffffffffffffffffff021916908373ffffffffffffffffffffffffffffffffffffffff1602179055507f33a7e73920e7bb871d64f12f439f70e8d764c488da2188d67bd27ddb60205137600160009054906101000a900473ffffffffffffffffffffffffffffffffffffffff16604051808273ffffffffffffffffffffffffffffffffffffffff1673ffffffffffffffffffffffffffffffffffffffff16815260200191505060405180910390a150565b60036020528060005260406000206000915054906101000a900473ffffffffffffffffffffffffffffffffffffffff1681565b6000600360008773ffffffffffffffffffffffffffffffffffffffff1673ffffffffffffffffffffffffffffffffffffffff16815260200190815260200160002060009054906101000a900473ffffffffffffffffffffffffffffffffffffffff1673ffffffffffffffffffffffffffffffffffffffff163373ffffffffffffffffffffffffffffffffffffffff1614151562000c2c57600080fd5b8590508073ffffffffffffffffffffffffffffffffffffffff1663e5b328b3868686866040518563ffffffff167c01000000000000000000000000000000000000000000000000000000000281526004018080602001806020018060200180602001858103855289818151815260200191508051906020019080838360005b8381101562000cc857808201518184015260208101905062000cab565b50505050905090810190601f16801562000cf65780820380516001836020036101000a031916815260200191505b50858103845288818151815260200191508051906020019080838360005b8381101562000d3157808201518184015260208101905062000d14565b50505050905090810190601f16801562000d5f5780820380516001836020036101000a031916815260200191505b50858103835287818151815260200191508051906020019080838360005b8381101562000d9a57808201518184015260208101905062000d7d565b50505050905090810190601f16801562000dc85780820380516001836020036101000a031916815260200191505b50858103825286818151815260200191508051906020019080838360005b8381101562000e0357808201518184015260208101905062000de6565b50505050905090810190601f16801562000e315780820380516001836020036101000a031916815260200191505b5098505050505050505050600060405180830381600087803b151562000e5657600080fd5b6102c65a03f1151562000e6857600080fd5b5050508573ffffffffffffffffffffffffffffffffffffffff167f4bac88da75ad3af7d6572cdf075dbb975c2235a92ee7301264b79f6bcc336d93868686866040518080602001806020018060200180602001858103855289818151815260200191508051906020019080838360005b8381101562000ef557808201518184015260208101905062000ed8565b50505050905090810190601f16801562000f235780820380516001836020036101000a031916815260200191505b50858103845288818151815260200191508051906020019080838360005b8381101562000f5e57808201518184015260208101905062000f41565b50505050905090810190601f16801562000f8c5780820380516001836020036101000a031916815260200191505b50858103835287818151815260200191508051906020019080838360005b8381101562000fc757808201518184015260208101905062000faa565b50505050905090810190601f16801562000ff55780820380516001836020036101000a031916815260200191505b50858103825286818151815260200191508051906020019080838360005b838110156200103057808201518184015260208101905062001013565b50505050905090810190601f1680156200105e5780820380516001836020036101000a031916815260200191505b509850505050505050505060405180910390a2505050505050565b62001083620023d5565b6200108d620023d5565b60008060008710158015620010a6575060028054905087105b1515620010b257600080fd5b60008610158015620010c5575060148611155b1515620010d157600080fd5b8660028054905003861115620010ec57866002805490500395505b85604051805910620010fb5750595b90808252806020026020018201604052509250600091505b85821015620011c957818701905084156200113657600181600280549050030390505b6002818154811015156200114657fe5b906000526020600020900160009054906101000a900473ffffffffffffffffffffffffffffffffffffffff1683838151811015156200118157fe5b9060200190602002019073ffffffffffffffffffffffffffffffffffffffff16908173ffffffffffffffffffffffffffffffffffffffff168152505060018201915062001113565b8293505050509392505050565b600281815481101515620011e657fe5b90600052602060002090016000915054906101000a900473ffffffffffffffffffffffffffffffffffffffff1681565b6000809054906101000a900473ffffffffffffffffffffffffffffffffffffffff1681565b60008060008473ffffffffffffffffffffffffffffffffffffffff16600160009054906101000a900473ffffffffffffffffffffffffffffffffffffffff1673ffffffffffffffffffffffffffffffffffffffff161415156200129d57600080fd5b600160009054906101000a900473ffffffffffffffffffffffffffffffffffffffff169250620012cc620016ef565b9150670de0b6b3a7640000828702811515620012e457fe5b049050858373ffffffffffffffffffffffffffffffffffffffff166370a08231896000604051602001526040518263ffffffff167c0100000000000000000000000000000000000000000000000000000000028152600401808273ffffffffffffffffffffffffffffffffffffffff1673ffffffffffffffffffffffffffffffffffffffff168152602001915050602060405180830381600087803b15156200138c57600080fd5b6102c65a03f115156200139e57600080fd5b5050506040518051905010151515620013b357fe5b858373ffffffffffffffffffffffffffffffffffffffff1663dd62ed3e89306000604051602001526040518363ffffffff167c0100000000000000000000000000000000000000000000000000000000028152600401808373ffffffffffffffffffffffffffffffffffffffff1673ffffffffffffffffffffffffffffffffffffffff1681526020018273ffffffffffffffffffffffffffffffffffffffff1673ffffffffffffffffffffffffffffffffffffffff16815260200192505050602060405180830381600087803b15156200148c57600080fd5b6102c65a03f115156200149e57600080fd5b5050506040518051905010151515620014b357fe5b803073ffffffffffffffffffffffffffffffffffffffff163110151515620014d757fe5b8273ffffffffffffffffffffffffffffffffffffffff166323b872dd8830896000604051602001526040518463ffffffff167c0100000000000000000000000000000000000000000000000000000000028152600401808473ffffffffffffffffffffffffffffffffffffffff1673ffffffffffffffffffffffffffffffffffffffff1681526020018373ffffffffffffffffffffffffffffffffffffffff1673ffffffffffffffffffffffffffffffffffffffff1681526020018281526020019350505050602060405180830381600087803b1515620015b757600080fd5b6102c65a03f11515620015c957600080fd5b50505060405180519050508673ffffffffffffffffffffffffffffffffffffffff166108fc829081150290604051600060405180830381858888f1935050505015156200161557600080fd5b7fc468806eb98fde457a1d65e86bb4b54d2b0db495952081b9395d7826212a369b87878385600160009054906101000a900473ffffffffffffffffffffffffffffffffffffffff16604051808673ffffffffffffffffffffffffffffffffffffffff1673ffffffffffffffffffffffffffffffffffffffff1681526020018581526020018481526020018381526020018273ffffffffffffffffffffffffffffffffffffffff1673ffffffffffffffffffffffffffffffffffffffff1681526020019550505050505060405180910390a150505050505050565b600080600080600160009054906101000a900473ffffffffffffffffffffffffffffffffffffffff1692508273ffffffffffffffffffffffffffffffffffffffff166318160ddd6000604051602001526040518163ffffffff167c0100000000000000000000000000000000000000000000000000000000028152600401602060405180830381600087803b15156200178757600080fd5b6102c65a03f115156200179957600080fd5b5050506040518051905091508273ffffffffffffffffffffffffffffffffffffffff166370a08231306000604051602001526040518263ffffffff167c0100000000000000000000000000000000000000000000000000000000028152600401808273ffffffffffffffffffffffffffffffffffffffff1673ffffffffffffffffffffffffffffffffffffffff168152602001915050602060405180830381600087803b15156200184957600080fd5b6102c65a03f115156200185b57600080fd5b50505060405180519050905060008183031115156200187657fe5b8082036014670de0b6b3a76400003073ffffffffffffffffffffffffffffffffffffffff16310202811515620018a857fe5b0493507f4c108a2515f4455b260bbbda8ababeea7a962d43719801ec82f3ba291a3aab6882823073ffffffffffffffffffffffffffffffffffffffff163184860388604051808681526020018581526020018481526020018381526020018281526020019550505050505060405180910390a183935050505090565b600160009054906101000a900473ffffffffffffffffffffffffffffffffffffffff1681565b6000806000600160009054906101000a900473ffffffffffffffffffffffffffffffffffffffff1692506200197e620016ef565b915081670de0b6b3a764000034028115156200199657fe5b0490508273ffffffffffffffffffffffffffffffffffffffff1663a9059cbb33836040518363ffffffff167c0100000000000000000000000000000000000000000000000000000000028152600401808373ffffffffffffffffffffffffffffffffffffffff1673ffffffffffffffffffffffffffffffffffffffff16815260200182815260200192505050600060405180830381600087803b151562001a3c57600080fd5b6102c65a03f1151562001a4e57600080fd5b5050507f678bff21967f2f3a09540ac4650c6827fff735b884ee0cede358697f4fbfaf8433348385600160009054906101000a900473ffffffffffffffffffffffffffffffffffffffff16604051808673ffffffffffffffffffffffffffffffffffffffff1673ffffffffffffffffffffffffffffffffffffffff1681526020018581526020018481526020018381526020018273ffffffffffffffffffffffffffffffffffffffff1673ffffffffffffffffffffffffffffffffffffffff1681526020019550505050505060405180910390a1505050565b565b6000808433858562001b3a620023e9565b80806020018573ffffffffffffffffffffffffffffffffffffffff1673ffffffffffffffffffffffffffffffffffffffff16815260200180602001848152602001838103835287818151815260200191508051906020019080838360005b8381101562001bb557808201518184015260208101905062001b98565b50505050905090810190601f16801562001be35780820380516001836020036101000a031916815260200191505b50838103825285818151815260200191508051906020019080838360005b8381101562001c1e57808201518184015260208101905062001c01565b50505050905090810190601f16801562001c4c5780820380516001836020036101000a031916815260200191505b509650505050505050604051809103906000f080151562001c6c57600080fd5b90506002805480600101828162001c849190620023fa565b9160005260206000209001600083909190916101000a81548173ffffffffffffffffffffffffffffffffffffffff021916908373ffffffffffffffffffffffffffffffffffffffff1602179055505033600360008373ffffffffffffffffffffffffffffffffffffffff1673ffffffffffffffffffffffffffffffffffffffff16815260200190815260200160002060006101000a81548173ffffffffffffffffffffffffffffffffffffffff021916908373ffffffffffffffffffffffffffffffffffffffff160217905550600460003373ffffffffffffffffffffffffffffffffffffffff1673ffffffffffffffffffffffffffffffffffffffff168152602001908152602001600020805480600101828162001da49190620023fa565b9160005260206000209001600083909190916101000a81548173ffffffffffffffffffffffffffffffffffffffff021916908373ffffffffffffffffffffffffffffffffffffffff1602179055505062001e0033600162001fce565b8073ffffffffffffffffffffffffffffffffffffffff163373ffffffffffffffffffffffffffffffffffffffff167fbd50f4ea3e0a887007448808601296d754c96e9674b0dc00432e8280b2566afc86866040518080602001838152602001828103825284818151815260200191508051906020019080838360005b8381101562001e9957808201518184015260208101905062001e7c565b50505050905090810190601f16801562001ec75780820380516001836020036101000a031916815260200191505b50935050505060405180910390a3809150509392505050565b6000809054906101000a900473ffffffffffffffffffffffffffffffffffffffff1673ffffffffffffffffffffffffffffffffffffffff163373ffffffffffffffffffffffffffffffffffffffff1614151562001f3c57600080fd5b806000806101000a81548173ffffffffffffffffffffffffffffffffffffffff021916908373ffffffffffffffffffffffffffffffffffffffff16021790555050565b60046020528160005260406000208181548110151562001f9b57fe5b90600052602060002090016000915091509054906101000a900473ffffffffffffffffffffffffffffffffffffffff1681565b600080600160009054906101000a900473ffffffffffffffffffffffffffffffffffffffff1691508173ffffffffffffffffffffffffffffffffffffffff1663313ce5676000604051602001526040518163ffffffff167c0100000000000000000000000000000000000000000000000000000000028152600401602060405180830381600087803b15156200206357600080fd5b6102c65a03f115156200207557600080fd5b5050506040518051905060ff16600a0a83029050808273ffffffffffffffffffffffffffffffffffffffff166370a08231306000604051602001526040518263ffffffff167c0100000000000000000000000000000000000000000000000000000000028152600401808273ffffffffffffffffffffffffffffffffffffffff1673ffffffffffffffffffffffffffffffffffffffff168152602001915050602060405180830381600087803b15156200212e57600080fd5b6102c65a03f115156200214057600080fd5b50505060405180519050101515156200215557fe5b8173ffffffffffffffffffffffffffffffffffffffff1663a9059cbb33836040518363ffffffff167c0100000000000000000000000000000000000000000000000000000000028152600401808373ffffffffffffffffffffffffffffffffffffffff1673ffffffffffffffffffffffffffffffffffffffff16815260200182815260200192505050600060405180830381600087803b1515620021f857600080fd5b6102c65a03f115156200220a57600080fd5b5050507fe126b86ec5d248619dafc33c7f6c43623ed4c27931d71b999255549f269635f984828473ffffffffffffffffffffffffffffffffffffffff166370a08231306000604051602001526040518263ffffffff167c0100000000000000000000000000000000000000000000000000000000028152600401808273ffffffffffffffffffffffffffffffffffffffff1673ffffffffffffffffffffffffffffffffffffffff168152602001915050602060405180830381600087803b1515620022d457600080fd5b6102c65a03f11515620022e657600080fd5b505050604051805190508573ffffffffffffffffffffffffffffffffffffffff166318160ddd6000604051602001526040518163ffffffff167c0100000000000000000000000000000000000000000000000000000000028152600401602060405180830381600087803b15156200235d57600080fd5b6102c65a03f115156200236f57600080fd5b50505060405180519050604051808573ffffffffffffffffffffffffffffffffffffffff1673ffffffffffffffffffffffffffffffffffffffff16815260200184815260200183815260200182815260200194505050505060405180910390a150505050565b602060405190810160405280600081525090565b604051612063806200245283390190565b815481835581811511620024245781836000526020600020918201910162002423919062002429565b5b505050565b6200244e91905b808211156200244a57600081600090555060010162002430565b5090565b905600606060405234156200001057600080fd5b604051620020633803806200206383398101604052808051820191906020018051906020019091908051820191906020018051906020019091905050336000806101000a81548173ffffffffffffffffffffffffffffffffffffffff021916908373ffffffffffffffffffffffffffffffffffffffff1602179055508360039080519060200190620000a492919062000110565b5082600260006101000a81548173ffffffffffffffffffffffffffffffffffffffff021916908373ffffffffffffffffffffffffffffffffffffffff1602179055508160019080519060200190620000fe92919062000110565b508060058190555050505050620001bf565b828054600181600116156101000203166002900490600052602060002090601f016020900481019282601f106200015357805160ff191683800117855562000184565b8280016001018555821562000184579182015b828111156200018357825182559160200191906001019062000166565b5b50905062000193919062000197565b5090565b620001bc91905b80821115620001b85760008160009055506001016200019e565b5090565b90565b611e9480620001cf6000396000f3006060604052600436106100e6576000357c0100000000000000000000000000000000000000000000000000000000900463ffffffff1680632fa81692146100eb578063492cc769146101795780634a79d50c146102445780635ecdbc35146102d25780636a64aabb146103235780637284e416146103b1578063729acff41461043f5780638da5cb5b146104cd5780638f4ffcb114610522578063a035b1fe146105c6578063a05f41a4146105ef578063a6c3e6b914610628578063a75e28471461067d578063ade4ce6a1461070b578063e5b328b314610780578063f2fde38b146108a6575b600080fd5b34156100f657600080fd5b6100fe6108df565b6040518080602001828103825283818151815260200191508051906020019080838360005b8381101561013e578082015181840152602081019050610123565b50505050905090810190601f16801561016b5780820380516001836020036101000a031916815260200191505b509250505060405180910390f35b6101c9600480803590602001908201803590602001908080601f01602080910402602001604051908101604052809392919081815260200183838082843782019150505050505091905050610aa7565b6040518080602001828103825283818151815260200191508051906020019080838360005b838110156102095780820151818401526020810190506101ee565b50505050905090810190601f1680156102365780820380516001836020036101000a031916815260200191505b509250505060405180910390f35b341561024f57600080fd5b610257610f5c565b6040518080602001828103825283818151815260200191508051906020019080838360005b8381101561029757808201518184015260208101905061027c565b50505050905090810190601f1680156102c45780820380516001836020036101000a031916815260200191505b509250505060405180910390f35b34156102dd57600080fd5b610309600480803573ffffffffffffffffffffffffffffffffffffffff16906020019091905050610ffa565b604051808215151515815260200191505060405180910390f35b341561032e57600080fd5b610336611046565b6040518080602001828103825283818151815260200191508051906020019080838360005b8381101561037657808201518184015260208101905061035b565b50505050905090810190601f1680156103a35780820380516001836020036101000a031916815260200191505b509250505060405180910390f35b34156103bc57600080fd5b6103c46110e4565b6040518080602001828103825283818151815260200191508051906020019080838360005b838110156104045780820151818401526020810190506103e9565b50505050905090810190601f1680156104315780820380516001836020036101000a031916815260200191505b509250505060405180910390f35b341561044a57600080fd5b610452611182565b6040518080602001828103825283818151815260200191508051906020019080838360005b83811015610492578082015181840152602081019050610477565b50505050905090810190601f1680156104bf5780820380516001836020036101000a031916815260200191505b509250505060405180910390f35b34156104d857600080fd5b6104e0611220565b604051808273ffffffffffffffffffffffffffffffffffffffff1673ffffffffffffffffffffffffffffffffffffffff16815260200191505060405180910390f35b341561052d57600080fd5b6105c4600480803573ffffffffffffffffffffffffffffffffffffffff1690602001909190803590602001909190803573ffffffffffffffffffffffffffffffffffffffff1690602001909190803590602001908201803590602001908080601f01602080910402602001604051908101604052809392919081815260200183838082843782019150505050505091905050611245565b005b34156105d157600080fd5b6105d9611a69565b6040518082815260200191505060405180910390f35b34156105fa57600080fd5b610626600480803573ffffffffffffffffffffffffffffffffffffffff16906020019091905050611a6f565b005b341561063357600080fd5b61063b611b0e565b604051808273ffffffffffffffffffffffffffffffffffffffff1673ffffffffffffffffffffffffffffffffffffffff16815260200191505060405180910390f35b341561068857600080fd5b610690611b34565b6040518080602001828103825283818151815260200191508051906020019080838360005b838110156106d05780820151818401526020810190506106b5565b50505050905090810190601f1680156106fd5780820380516001836020036101000a031916815260200191505b509250505060405180910390f35b341561071657600080fd5b610766600480803590602001908201803590602001908080601f01602080910402602001604051908101604052809392919081815260200183838082843782019150505050505091905050611bd2565b604051808215151515815260200191505060405180910390f35b341561078b57600080fd5b6108a4600480803590602001908201803590602001908080601f0160208091040260200160405190810160405280939291908181526020018383808284378201915050505050509190803590602001908201803590602001908080601f0160208091040260200160405190810160405280939291908181526020018383808284378201915050505050509190803590602001908201803590602001908080601f0160208091040260200160405190810160405280939291908181526020018383808284378201915050505050509190803590602001908201803590602001908080601f01602080910402602001604051908101604052809392919081815260200183838082843782019150505050505091905050611c54565b005b34156108b157600080fd5b6108dd600480803573ffffffffffffffffffffffffffffffffffffffff16906020019091905050611d11565b005b6108e7611daf565b6000600960003373ffffffffffffffffffffffffffffffffffffffff1673ffffffffffffffffffffffffffffffffffffffff168152602001908152602001600020541415151561093657600080fd5b3373ffffffffffffffffffffffffffffffffffffffff167f1b3fe7e88b654f891e3784bb6610351f40123e487bf6ef019458e7f5cd7beade600360405180806020018281038252838181546001816001161561010002031660029004815260200191508054600181600116156101000203166002900480156109f95780601f106109ce576101008083540402835291602001916109f9565b820191906000526020600020905b8154815290600101906020018083116109dc57829003601f168201915b50509250505060405180910390a260038054600181600116156101000203166002900480601f016020809104026020016040519081016040528092919081815260200182805460018160011615610100020316600290048015610a9d5780601f10610a7257610100808354040283529160200191610a9d565b820191906000526020600020905b815481529060010190602001808311610a8057829003601f168201915b5050505050905090565b610aaf611daf565b6000806005543410151515610ac357600080fd5b34600960003373ffffffffffffffffffffffffffffffffffffffff1673ffffffffffffffffffffffffffffffffffffffff168152602001908152602001600020819055506001600a856040518082805190602001908083835b602083101515610b415780518252602082019150602081019050602083039250610b1c565b6001836020036101000a038019825116818451168082178552505050505050905001915050908152602001604051809103902060006101000a81548160ff0219169083151502179055503373ffffffffffffffffffffffffffffffffffffffff167f562514bad2da4ff399bd32efdf7d1e11c83def9768530e75f74a6f94724a689d85346003604051808060200184815260200180602001838103835286818151815260200191508051906020019080838360005b83811015610c11578082015181840152602081019050610bf6565b50505050905090810190601f168015610c3e5780820380516001836020036101000a031916815260200191505b50838103825284818154600181600116156101000203166002900481526020019150805460018160011615610100020316600290048015610cc05780601f10610c9557610100808354040283529160200191610cc0565b820191906000526020600020905b815481529060010190602001808311610ca357829003601f168201915b50509550505050505060405180910390a2600a60093402811515610ce057fe5b0491508134039050600260009054906101000a900473ffffffffffffffffffffffffffffffffffffffff1673ffffffffffffffffffffffffffffffffffffffff166108fc839081150290604051600060405180830381858888f193505050501515610d4a57600080fd5b600260009054906101000a900473ffffffffffffffffffffffffffffffffffffffff1673ffffffffffffffffffffffffffffffffffffffff163373ffffffffffffffffffffffffffffffffffffffff167fddf252ad1be2c89b69c2b068fc378daa952ba7f163c4a11628f55a4df523b3ef846040518082815260200191505060405180910390a36000809054906101000a900473ffffffffffffffffffffffffffffffffffffffff1673ffffffffffffffffffffffffffffffffffffffff166108fc829081150290604051600060405180830381858888f193505050501515610e3257600080fd5b6000809054906101000a900473ffffffffffffffffffffffffffffffffffffffff1673ffffffffffffffffffffffffffffffffffffffff163373ffffffffffffffffffffffffffffffffffffffff167fddf252ad1be2c89b69c2b068fc378daa952ba7f163c4a11628f55a4df523b3ef836040518082815260200191505060405180910390a360038054600181600116156101000203166002900480601f016020809104026020016040519081016040528092919081815260200182805460018160011615610100020316600290048015610f4e5780601f10610f2357610100808354040283529160200191610f4e565b820191906000526020600020905b815481529060010190602001808311610f3157829003601f168201915b505050505092505050919050565b60068054600181600116156101000203166002900480601f016020809104026020016040519081016040528092919081815260200182805460018160011615610100020316600290048015610ff25780601f10610fc757610100808354040283529160200191610ff2565b820191906000526020600020905b815481529060010190602001808311610fd557829003601f168201915b505050505081565b600080600960008473ffffffffffffffffffffffffffffffffffffffff1673ffffffffffffffffffffffffffffffffffffffff1681526020019081526020016000205414159050919050565b60018054600181600116156101000203166002900480601f0160208091040260200160405190810160405280929190818152602001828054600181600116156101000203166002900480156110dc5780601f106110b1576101008083540402835291602001916110dc565b820191906000526020600020905b8154815290600101906020018083116110bf57829003601f168201915b505050505081565b60078054600181600116156101000203166002900480601f01602080910402602001604051908101604052809291908181526020018280546001816001161561010002031660029004801561117a5780601f1061114f5761010080835404028352916020019161117a565b820191906000526020600020905b81548152906001019060200180831161115d57829003601f168201915b505050505081565b60088054600181600116156101000203166002900480601f0160208091040260200160405190810160405280929190818152602001828054600181600116156101000203166002900480156112185780601f106111ed57610100808354040283529160200191611218565b820191906000526020600020905b8154815290600101906020018083116111fb57829003601f168201915b505050505081565b6000809054906101000a900473ffffffffffffffffffffffffffffffffffffffff1681565b600080600080600080600080611259611daf565b6000809054906101000a900473ffffffffffffffffffffffffffffffffffffffff1698508873ffffffffffffffffffffffffffffffffffffffff16639d76ea586000604051602001526040518163ffffffff167c0100000000000000000000000000000000000000000000000000000000028152600401602060405180830381600087803b15156112e957600080fd5b6102c65a03f115156112fa57600080fd5b5050506040518051905097508a73ffffffffffffffffffffffffffffffffffffffff168873ffffffffffffffffffffffffffffffffffffffff1614151561133d57fe5b8796508873ffffffffffffffffffffffffffffffffffffffff166398d5fdca6000604051602001526040518163ffffffff167c0100000000000000000000000000000000000000000000000000000000028152600401602060405180830381600087803b15156113ac57600080fd5b6102c65a03f115156113bd57600080fd5b505050604051805190509550670de0b6b3a7640000868d028115156113de57fe5b049450600a6009600554028115156113f257fe5b04935083851015151561140157fe5b600a60098d0281151561141057fe5b049250828c0391508b8773ffffffffffffffffffffffffffffffffffffffff166370a082318f6000604051602001526040518263ffffffff167c0100000000000000000000000000000000000000000000000000000000028152600401808273ffffffffffffffffffffffffffffffffffffffff1673ffffffffffffffffffffffffffffffffffffffff168152602001915050602060405180830381600087803b15156114bc57600080fd5b6102c65a03f115156114cd57600080fd5b50505060405180519050101515156114e157fe5b8673ffffffffffffffffffffffffffffffffffffffff166323b872dd8e600260009054906101000a900473ffffffffffffffffffffffffffffffffffffffff16866000604051602001526040518463ffffffff167c0100000000000000000000000000000000000000000000000000000000028152600401808473ffffffffffffffffffffffffffffffffffffffff1673ffffffffffffffffffffffffffffffffffffffff1681526020018373ffffffffffffffffffffffffffffffffffffffff1673ffffffffffffffffffffffffffffffffffffffff1681526020018281526020019350505050602060405180830381600087803b15156115e257600080fd5b6102c65a03f115156115f357600080fd5b5050506040518051905050600260009054906101000a900473ffffffffffffffffffffffffffffffffffffffff1673ffffffffffffffffffffffffffffffffffffffff168d73ffffffffffffffffffffffffffffffffffffffff167f3844b7075ed6e7d4b61342769cb2b1b325cba410a62932affaa90aee247dadf5856040518082815260200191505060405180910390a38673ffffffffffffffffffffffffffffffffffffffff166323b872dd8e6000809054906101000a900473ffffffffffffffffffffffffffffffffffffffff16856000604051602001526040518463ffffffff167c0100000000000000000000000000000000000000000000000000000000028152600401808473ffffffffffffffffffffffffffffffffffffffff1673ffffffffffffffffffffffffffffffffffffffff1681526020018373ffffffffffffffffffffffffffffffffffffffff1673ffffffffffffffffffffffffffffffffffffffff1681526020018281526020019350505050602060405180830381600087803b151561178557600080fd5b6102c65a03f1151561179657600080fd5b50505060405180519050506000809054906101000a900473ffffffffffffffffffffffffffffffffffffffff1673ffffffffffffffffffffffffffffffffffffffff168d73ffffffffffffffffffffffffffffffffffffffff167f3844b7075ed6e7d4b61342769cb2b1b325cba410a62932affaa90aee247dadf5846040518082815260200191505060405180910390a384600960008f73ffffffffffffffffffffffffffffffffffffffff1673ffffffffffffffffffffffffffffffffffffffff168152602001908152602001600020819055508990506001600a826040518082805190602001908083835b6020831015156118a85780518252602082019150602081019050602083039250611883565b6001836020036101000a038019825116818451168082178552505050505050905001915050908152602001604051809103902060006101000a81548160ff0219169083151502179055508c73ffffffffffffffffffffffffffffffffffffffff167f1e9d254680664f2ae4782f7ba78df303ce24bac876f0652b71f3b0e80a5c2fbd828e89896005548a600360405180806020018881526020018781526020018681526020018581526020018481526020018060200183810383528a818151815260200191508051906020019080838360005b8381101561199657808201518184015260208101905061197b565b50505050905090810190601f1680156119c35780820380516001836020036101000a031916815260200191505b50838103825284818154600181600116156101000203166002900481526020019150805460018160011615610100020316600290048015611a455780601f10611a1a57610100808354040283529160200191611a45565b820191906000526020600020905b815481529060010190602001808311611a2857829003601f168201915b5050995050505050505050505060405180910390a250505050505050505050505050565b60055481565b6000809054906101000a900473ffffffffffffffffffffffffffffffffffffffff1673ffffffffffffffffffffffffffffffffffffffff163373ffffffffffffffffffffffffffffffffffffffff16141515611aca57600080fd5b80600260006101000a81548173ffffffffffffffffffffffffffffffffffffffff021916908373ffffffffffffffffffffffffffffffffffffffff16021790555050565b600260009054906101000a900473ffffffffffffffffffffffffffffffffffffffff1681565b60048054600181600116156101000203166002900480601f016020809104026020016040519081016040528092919081815260200182805460018160011615610100020316600290048015611bca5780601f10611b9f57610100808354040283529160200191611bca565b820191906000526020600020905b815481529060010190602001808311611bad57829003601f168201915b505050505081565b6000600a826040518082805190602001908083835b602083101515611c0c5780518252602082019150602081019050602083039250611be7565b6001836020036101000a038019825116818451168082178552505050505050905001915050908152602001604051809103902060009054906101000a900460ff169050919050565b6000809054906101000a900473ffffffffffffffffffffffffffffffffffffffff1673ffffffffffffffffffffffffffffffffffffffff163373ffffffffffffffffffffffffffffffffffffffff16141515611caf57600080fd5b8360069080519060200190611cc5929190611dc3565b508260079080519060200190611cdc929190611dc3565b508160089080519060200190611cf3929190611dc3565b508060049080519060200190611d0a929190611dc3565b5050505050565b6000809054906101000a900473ffffffffffffffffffffffffffffffffffffffff1673ffffffffffffffffffffffffffffffffffffffff163373ffffffffffffffffffffffffffffffffffffffff16141515611d6c57600080fd5b806000806101000a81548173ffffffffffffffffffffffffffffffffffffffff021916908373ffffffffffffffffffffffffffffffffffffffff16021790555050565b602060405190810160405280600081525090565b828054600181600116156101000203166002900490600052602060002090601f016020900481019282601f10611e0457805160ff1916838001178555611e32565b82800160010185558215611e32579182015b82811115611e31578251825591602001919060010190611e16565b5b509050611e3f9190611e43565b5090565b611e6591905b80821115611e61576000816000905550600101611e49565b5090565b905600a165627a7a72305820b56803b6c3126c6aac2f27489145131829434dcc41f27495291440303f6cf41f0029a165627a7a72305820446547d3b6a818fd7787bd60f183fc981bc9bcdb93877b15a0c925a0788652ea0029",
  "source": "pragma solidity ^0.4.18;\n\nimport \"./owned.sol\";\nimport \"./CopyRightContract.sol\";\nimport \"./ChainStockToken.sol\";\nimport \"./SafeMath.sol\";\n\ncontract CRCTokenReserve is owned{\n    //token address\n    address public tokenAddress;\n    \n    event SetTokenAddress(address tokenAddress);\n    event AwardToken(address author, uint256 tokenAwarded, uint256 reservedTokenAmount, uint256 totalSupply);\n    event Buy(address buyer, uint256 value, uint256 tokenAmount, uint256 buyPrice, address tokenAddress);\n    event Sell(address seller, uint256 tokenAmount, uint256 value, uint256 sellPrice, address tokenAddress);\n    event GetPrice(uint256 total, uint256 reservedToken, uint256 reservedEth, uint256 marketToken, uint256 price);\n\n    //priceCSTWei\n    function getPrice() public returns(uint256 price) {\n        ChainStockToken cst = ChainStockToken(tokenAddress);\n        uint256 totalSupply = cst.totalSupply();\n        uint256 tokenBalance = cst.balanceOf(this);\n        assert(totalSupply - tokenBalance > 0);\n        price = uint256(this.balance * 10**18 * 20 / (totalSupply - tokenBalance));\n        GetPrice(totalSupply, tokenBalance, this.balance, totalSupply - tokenBalance ,price);\n        return price;\n    }\n\n    //tokenethbalance*20/tokenCount\n    function buy() payable public {\n        ChainStockToken cst = ChainStockToken(tokenAddress);\n        \n        uint256 buyPrice = getPrice();\n        uint256 amount = uint256(msg.value * 10**18 / buyPrice);            // calculates the amount\n\n        cst.transfer(msg.sender, amount);              // makes the transfers\n        Buy(msg.sender, msg.value, amount, buyPrice, tokenAddress);\n    }\n\n    //token\n    //TODO: \n    function receiveApproval(address _from, uint256 _amount, address _token, bytes _extraData) public {\n        require(tokenAddress == _token);\n\n        ChainStockToken cst = ChainStockToken(tokenAddress);\n        uint256 sellPrice = getPrice();\n        uint256 value = _amount * sellPrice / 10**18;            // calculates the amount\n\n        assert(cst.balanceOf(_from) >= _amount);\n        assert(cst.allowance(_from, this) >= _amount);\n        assert(this.balance >= value);\n\n        cst.transferFrom(_from, this, _amount);              // makes the transfers\n        _from.transfer(value);\n        Sell(_from, _amount, value, sellPrice, tokenAddress);\n    }\n\n    //tokenCST\n    function awardToken(address _author, uint256 tokenCount) internal{\n        //token\n        ChainStockToken cst = ChainStockToken(tokenAddress);\n        uint256 tokenAwarded = tokenCount * 10 ** uint256(cst.decimals());\n        assert(cst.balanceOf(this) >= tokenAwarded);\n        cst.transfer(msg.sender, tokenAwarded);\n        AwardToken(_author, tokenAwarded, cst.balanceOf(this), cst.totalSupply());\n    }\n\n    function setTokenAddress(address _tokenAddress) public onlyOwner{\n        tokenAddress = _tokenAddress;\n        SetTokenAddress(tokenAddress);\n    }\n}\n\ncontract CRCRegister is owned, CRCTokenReserve{\n    //all contracts\n    address[] public fileContracts;\n    //contract => author\n    mapping(address => address) public contractAuthor;\n    //author => contracts[]\n    mapping(address => address[]) public authorContracts;\n    \n\n    event Register(address indexed author, string authorName, uint256 price, address indexed crContract);\n    event Paied(address from, uint256 amount);\n    event UpdateContractInfo(address indexed crContract, string title, string description, string keywords, string previewFileHash);\n    \n    function CopyRightContractRegister() public {\n        //fileContracts = new address[](0);\n    }\n\n    /*\n    hash(ETH)\n    TODO:fileHash\n    */\n    function register(\n        string fileHash, \n        string authorName, \n        uint256 price) \n        public returns(address _fileContract){\n        address crc = address(new CopyRightContract(fileHash, msg.sender, authorName, price));\n\n        fileContracts.push(crc);\n        contractAuthor[crc] = msg.sender; \n\n        authorContracts[msg.sender].push(crc);\n\n        awardToken(msg.sender, 1);\n        Register(msg.sender, authorName, price, crc);\n        return crc;\n    }\n\n    function updateContractInfo (\n        address crContract, \n        string title, \n        string description, \n        string keywords, \n        string previewFileHash) public{\n        require(msg.sender == contractAuthor[crContract]);\n        CopyRightContract crc = CopyRightContract(crContract);\n        crc.setMetaInfo(title, description,keywords, previewFileHash);\n        UpdateContractInfo(crContract,title,description,keywords,previewFileHash);\n    }\n\n    /*\n    20\n    */\n    function list(uint256 start, uint256 length, bool reverse) constant public \n        returns(address[] _fileContracts) {\n        require(start >= 0 && start < fileContracts.length);\n        require(length >=0 && length <= 20);\n        if(length > fileContracts.length - start) length = fileContracts.length - start;\n\n        address[] memory results =  new address[](length);\n        for(uint256 i=0; i<length; i=i+1) {\n            uint256 index = start + i;\n            if(reverse) {\n                index = fileContracts.length - index - 1;\n            }\n            results[i] = fileContracts[index];\n        }\n        return results;\n    }\n\n    /*\n    20\n    */\n    function listByAuthor(address author, uint256 start, uint256 length) constant public \n        returns(address[] _fileContracts) {\n        address[] memory contracts = authorContracts[author];\n\n        require(start >= 0 && start < contracts.length);\n        require(length >=0 && length <= 20);\n        if(length > contracts.length - start) length = contracts.length - start;\n\n        address[] memory results =  new address[](length);\n        for(uint8 i=0; i<length; i=i+1) {\n            results[i] = contracts[start+i];\n        }\n        return results;\n    }\n\n    function() payable public {\n        Paied(msg.sender, msg.value);\n    }\n}",
  "sourcePath": "/Users/phx/eth/chainstock/contracts/CRCRegister.sol",
  "compiler": {
    "name": "solc",
    "version": "0.4.19+commit.c4cbbb05.Emscripten.clang"
  },
  "schemaVersion": "1.0.1",
  "updatedAt": "2018-02-27T15:00:32.047Z"
}