{
  "contractName": "CRCRegister",
  "abi": [
    {
      "constant": true,
      "inputs": [
        {
          "name": "",
          "type": "address"
        }
      ],
      "name": "contractAuthor",
      "outputs": [
        {
          "name": "",
          "type": "address"
        }
      ],
      "payable": false,
      "stateMutability": "view",
      "type": "function"
    },
    {
      "constant": true,
      "inputs": [
        {
          "name": "",
          "type": "uint256"
        }
      ],
      "name": "fileContracts",
      "outputs": [
        {
          "name": "",
          "type": "address"
        }
      ],
      "payable": false,
      "stateMutability": "view",
      "type": "function"
    },
    {
      "constant": true,
      "inputs": [
        {
          "name": "",
          "type": "address"
        },
        {
          "name": "",
          "type": "uint256"
        }
      ],
      "name": "authorContracts",
      "outputs": [
        {
          "name": "",
          "type": "address"
        }
      ],
      "payable": false,
      "stateMutability": "view",
      "type": "function"
    },
    {
      "payable": true,
      "stateMutability": "payable",
      "type": "fallback"
    },
    {
      "anonymous": false,
      "inputs": [
        {
          "indexed": false,
          "name": "author",
          "type": "address"
        },
        {
          "indexed": false,
          "name": "authorName",
          "type": "string"
        },
        {
          "indexed": false,
          "name": "price",
          "type": "uint256"
        },
        {
          "indexed": false,
          "name": "crContract",
          "type": "address"
        }
      ],
      "name": "Register",
      "type": "event"
    },
    {
      "anonymous": false,
      "inputs": [
        {
          "indexed": false,
          "name": "from",
          "type": "address"
        },
        {
          "indexed": false,
          "name": "amount",
          "type": "uint256"
        }
      ],
      "name": "Paied",
      "type": "event"
    },
    {
      "anonymous": false,
      "inputs": [
        {
          "indexed": false,
          "name": "crContract",
          "type": "address"
        },
        {
          "indexed": false,
          "name": "title",
          "type": "string"
        },
        {
          "indexed": false,
          "name": "description",
          "type": "string"
        },
        {
          "indexed": false,
          "name": "keywords",
          "type": "string"
        },
        {
          "indexed": false,
          "name": "previewFileHash",
          "type": "string"
        }
      ],
      "name": "UpdateContractInfo",
      "type": "event"
    },
    {
      "constant": false,
      "inputs": [],
      "name": "CopyRightContractRegister",
      "outputs": [],
      "payable": false,
      "stateMutability": "nonpayable",
      "type": "function"
    },
    {
      "constant": false,
      "inputs": [
        {
          "name": "fileHash",
          "type": "string"
        },
        {
          "name": "authorName",
          "type": "string"
        },
        {
          "name": "price",
          "type": "uint256"
        }
      ],
      "name": "register",
      "outputs": [
        {
          "name": "_fileContract",
          "type": "address"
        }
      ],
      "payable": false,
      "stateMutability": "nonpayable",
      "type": "function"
    },
    {
      "constant": false,
      "inputs": [
        {
          "name": "crContract",
          "type": "address"
        },
        {
          "name": "title",
          "type": "string"
        },
        {
          "name": "description",
          "type": "string"
        },
        {
          "name": "keywords",
          "type": "string"
        },
        {
          "name": "previewFileHash",
          "type": "string"
        }
      ],
      "name": "updateContractInfo",
      "outputs": [],
      "payable": false,
      "stateMutability": "nonpayable",
      "type": "function"
    },
    {
      "constant": true,
      "inputs": [
        {
          "name": "start",
          "type": "uint256"
        },
        {
          "name": "length",
          "type": "uint256"
        }
      ],
      "name": "list",
      "outputs": [
        {
          "name": "_fileContracts",
          "type": "address[]"
        }
      ],
      "payable": false,
      "stateMutability": "view",
      "type": "function"
    },
    {
      "constant": true,
      "inputs": [
        {
          "name": "author",
          "type": "address"
        },
        {
          "name": "start",
          "type": "uint256"
        },
        {
          "name": "length",
          "type": "uint256"
        }
      ],
      "name": "listByAuthor",
      "outputs": [
        {
          "name": "_fileContracts",
          "type": "address[]"
        }
      ],
      "payable": false,
      "stateMutability": "view",
      "type": "function"
    }
  ],
  "bytecode": "0x6060604052341561000f57600080fd5b6128d68061001e6000396000f30060606040526004361061008e576000357c0100000000000000000000000000000000000000000000000000000000900463ffffffff168063015a44df146100fb5780632905a3b71461019b57806334c221ed1461021457806350fd73671461035957806372ac5213146103da578063bfd37d251461043d578063e8a6055814610452578063fb9ca8ac1461053b575b7f6ba9df9d92498f70e3ce503a61655f967479ba67129d4333e347a87c5c29b8943334604051808373ffffffffffffffffffffffffffffffffffffffff1673ffffffffffffffffffffffffffffffffffffffff1681526020018281526020019250505060405180910390a1005b341561010657600080fd5b610144600480803573ffffffffffffffffffffffffffffffffffffffff169060200190919080359060200190919080359060200190919050506105bd565b6040518080602001828103825283818151815260200191508051906020019060200280838360005b8381101561018757808201518184015260208101905061016c565b505050509050019250505060405180910390f35b34156101a657600080fd5b6101d2600480803573ffffffffffffffffffffffffffffffffffffffff1690602001909190505061073b565b604051808273ffffffffffffffffffffffffffffffffffffffff1673ffffffffffffffffffffffffffffffffffffffff16815260200191505060405180910390f35b341561021f57600080fd5b610357600480803573ffffffffffffffffffffffffffffffffffffffff1690602001909190803590602001908201803590602001908080601f0160208091040260200160405190810160405280939291908181526020018383808284378201915050505050509190803590602001908201803590602001908080601f0160208091040260200160405190810160405280939291908181526020018383808284378201915050505050509190803590602001908201803590602001908080601f0160208091040260200160405190810160405280939291908181526020018383808284378201915050505050509190803590602001908201803590602001908080601f0160208091040260200160405190810160405280939291908181526020018383808284378201915050505050509190505061076e565b005b341561036457600080fd5b6103836004808035906020019091908035906020019091905050610c59565b6040518080602001828103825283818151815260200191508051906020019060200280838360005b838110156103c65780820151818401526020810190506103ab565b505050509050019250505060405180910390f35b34156103e557600080fd5b6103fb6004808035906020019091905050610d95565b604051808273ffffffffffffffffffffffffffffffffffffffff1673ffffffffffffffffffffffffffffffffffffffff16815260200191505060405180910390f35b341561044857600080fd5b610450610dd4565b005b341561045d57600080fd5b6104f9600480803590602001908201803590602001908080601f0160208091040260200160405190810160405280939291908181526020018383808284378201915050505050509190803590602001908201803590602001908080601f01602080910402602001604051908101604052809392919081815260200183838082843782019150505050505091908035906020019091905050610dd6565b604051808273ffffffffffffffffffffffffffffffffffffffff1673ffffffffffffffffffffffffffffffffffffffff16815260200191505060405180910390f35b341561054657600080fd5b61057b600480803573ffffffffffffffffffffffffffffffffffffffff169060200190919080359060200190919050506111aa565b604051808273ffffffffffffffffffffffffffffffffffffffff1673ffffffffffffffffffffffffffffffffffffffff16815260200191505060405180910390f35b6105c56111f8565b60006105cf6111f8565b6000600260008873ffffffffffffffffffffffffffffffffffffffff1673ffffffffffffffffffffffffffffffffffffffff1681526020019081526020016000209250600086101580156106265750828054905086105b151561063157600080fd5b60008510158015610643575060148511155b151561064e57600080fd5b85838054905003851115610666578583805490500394505b846040518059106106745750595b90808252806020026020018201604052509150600090505b848160ff16101561072e57828160ff1687018154811015156106aa57fe5b906000526020600020900160009054906101000a900473ffffffffffffffffffffffffffffffffffffffff16828260ff168151811015156106e757fe5b9060200190602002019073ffffffffffffffffffffffffffffffffffffffff16908173ffffffffffffffffffffffffffffffffffffffff168152505060018101905061068c565b8193505050509392505050565b60016020528060005260406000206000915054906101000a900473ffffffffffffffffffffffffffffffffffffffff1681565b6000600160008773ffffffffffffffffffffffffffffffffffffffff1673ffffffffffffffffffffffffffffffffffffffff16815260200190815260200160002060009054906101000a900473ffffffffffffffffffffffffffffffffffffffff1673ffffffffffffffffffffffffffffffffffffffff163373ffffffffffffffffffffffffffffffffffffffff1614151561080957600080fd5b8590508073ffffffffffffffffffffffffffffffffffffffff1663e5b328b3868686866040518563ffffffff167c01000000000000000000000000000000000000000000000000000000000281526004018080602001806020018060200180602001858103855289818151815260200191508051906020019080838360005b838110156108a3578082015181840152602081019050610888565b50505050905090810190601f1680156108d05780820380516001836020036101000a031916815260200191505b50858103845288818151815260200191508051906020019080838360005b838110156109095780820151818401526020810190506108ee565b50505050905090810190601f1680156109365780820380516001836020036101000a031916815260200191505b50858103835287818151815260200191508051906020019080838360005b8381101561096f578082015181840152602081019050610954565b50505050905090810190601f16801561099c5780820380516001836020036101000a031916815260200191505b50858103825286818151815260200191508051906020019080838360005b838110156109d55780820151818401526020810190506109ba565b50505050905090810190601f168015610a025780820380516001836020036101000a031916815260200191505b5098505050505050505050600060405180830381600087803b1515610a2657600080fd5b6102c65a03f11515610a3757600080fd5b5050507f4bac88da75ad3af7d6572cdf075dbb975c2235a92ee7301264b79f6bcc336d938686868686604051808673ffffffffffffffffffffffffffffffffffffffff1673ffffffffffffffffffffffffffffffffffffffff16815260200180602001806020018060200180602001858103855289818151815260200191508051906020019080838360005b83811015610ade578082015181840152602081019050610ac3565b50505050905090810190601f168015610b0b5780820380516001836020036101000a031916815260200191505b50858103845288818151815260200191508051906020019080838360005b83811015610b44578082015181840152602081019050610b29565b50505050905090810190601f168015610b715780820380516001836020036101000a031916815260200191505b50858103835287818151815260200191508051906020019080838360005b83811015610baa578082015181840152602081019050610b8f565b50505050905090810190601f168015610bd75780820380516001836020036101000a031916815260200191505b50858103825286818151815260200191508051906020019080838360005b83811015610c10578082015181840152602081019050610bf5565b50505050905090810190601f168015610c3d5780820380516001836020036101000a031916815260200191505b50995050505050505050505060405180910390a1505050505050565b610c616111f8565b610c696111f8565b6000808510158015610c7f575060008054905085105b1515610c8a57600080fd5b60008410158015610c9c575060148411155b1515610ca757600080fd5b8460008054905003841115610cc157846000805490500393505b83604051805910610ccf5750595b90808252806020026020018201604052509150600090505b838160ff161015610d8a5760008160ff168601815481101515610d0657fe5b906000526020600020900160009054906101000a900473ffffffffffffffffffffffffffffffffffffffff16828260ff16815181101515610d4357fe5b9060200190602002019073ffffffffffffffffffffffffffffffffffffffff16908173ffffffffffffffffffffffffffffffffffffffff1681525050600181019050610ce7565b819250505092915050565b600081815481101515610da457fe5b90600052602060002090016000915054906101000a900473ffffffffffffffffffffffffffffffffffffffff1681565b565b60008084338585610de561120c565b80806020018573ffffffffffffffffffffffffffffffffffffffff1673ffffffffffffffffffffffffffffffffffffffff16815260200180602001848152602001838103835287818151815260200191508051906020019080838360005b83811015610e5e578082015181840152602081019050610e43565b50505050905090810190601f168015610e8b5780820380516001836020036101000a031916815260200191505b50838103825285818151815260200191508051906020019080838360005b83811015610ec4578082015181840152602081019050610ea9565b50505050905090810190601f168015610ef15780820380516001836020036101000a031916815260200191505b509650505050505050604051809103906000f0801515610f1057600080fd5b905060008054806001018281610f26919061121c565b9160005260206000209001600083909190916101000a81548173ffffffffffffffffffffffffffffffffffffffff021916908373ffffffffffffffffffffffffffffffffffffffff1602179055505033600160008373ffffffffffffffffffffffffffffffffffffffff1673ffffffffffffffffffffffffffffffffffffffff16815260200190815260200160002060006101000a81548173ffffffffffffffffffffffffffffffffffffffff021916908373ffffffffffffffffffffffffffffffffffffffff160217905550600260003373ffffffffffffffffffffffffffffffffffffffff1673ffffffffffffffffffffffffffffffffffffffff1681526020019081526020016000208054806001018281611044919061121c565b9160005260206000209001600083909190916101000a81548173ffffffffffffffffffffffffffffffffffffffff021916908373ffffffffffffffffffffffffffffffffffffffff160217905550507fbd50f4ea3e0a887007448808601296d754c96e9674b0dc00432e8280b2566afc33858584604051808573ffffffffffffffffffffffffffffffffffffffff1673ffffffffffffffffffffffffffffffffffffffff168152602001806020018481526020018373ffffffffffffffffffffffffffffffffffffffff1673ffffffffffffffffffffffffffffffffffffffff168152602001828103825285818151815260200191508051906020019080838360005b83811015611162578082015181840152602081019050611147565b50505050905090810190601f16801561118f5780820380516001836020036101000a031916815260200191505b509550505050505060405180910390a1809150509392505050565b6002602052816000526040600020818154811015156111c557fe5b90600052602060002090016000915091509054906101000a900473ffffffffffffffffffffffffffffffffffffffff1681565b602060405190810160405280600081525090565b60405161163d8061126e83390190565b815481835581811511611243578183600052602060002091820191016112429190611248565b5b505050565b61126a91905b8082111561126657600081600090555060010161124e565b5090565b905600606060405234156200001057600080fd5b6040516200163d3803806200163d83398101604052808051820191906020018051906020019091908051820191906020018051906020019091905050336000806101000a81548173ffffffffffffffffffffffffffffffffffffffff021916908373ffffffffffffffffffffffffffffffffffffffff1602179055508360039080519060200190620000a492919062000110565b5082600260006101000a81548173ffffffffffffffffffffffffffffffffffffffff021916908373ffffffffffffffffffffffffffffffffffffffff1602179055508160019080519060200190620000fe92919062000110565b508060058190555050505050620001bf565b828054600181600116156101000203166002900490600052602060002090601f016020900481019282601f106200015357805160ff191683800117855562000184565b8280016001018555821562000184579182015b828111156200018357825182559160200191906001019062000166565b5b50905062000193919062000197565b5090565b620001bc91905b80821115620001b85760008160009055506001016200019e565b5090565b90565b61146e80620001cf6000396000f3006060604052600436106100db576000357c0100000000000000000000000000000000000000000000000000000000900463ffffffff1680632fa81692146100e0578063492cc7691461016e5780634a79d50c146102395780635ecdbc35146102c75780636a64aabb146103185780637284e416146103a6578063729acff4146104345780638da5cb5b146104c2578063a035b1fe14610517578063a05f41a414610540578063a6c3e6b914610579578063a75e2847146105ce578063ade4ce6a1461065c578063e5b328b3146106d1578063f2fde38b146107f7575b600080fd5b34156100eb57600080fd5b6100f3610830565b6040518080602001828103825283818151815260200191508051906020019080838360005b83811015610133578082015181840152602081019050610118565b50505050905090810190601f1680156101605780820380516001836020036101000a031916815260200191505b509250505060405180910390f35b6101be600480803590602001908201803590602001908080601f016020809104026020016040519081016040528093929190818152602001838380828437820191505050505050919050506109f8565b6040518080602001828103825283818151815260200191508051906020019080838360005b838110156101fe5780820151818401526020810190506101e3565b50505050905090810190601f16801561022b5780820380516001836020036101000a031916815260200191505b509250505060405180910390f35b341561024457600080fd5b61024c610d5a565b6040518080602001828103825283818151815260200191508051906020019080838360005b8381101561028c578082015181840152602081019050610271565b50505050905090810190601f1680156102b95780820380516001836020036101000a031916815260200191505b509250505060405180910390f35b34156102d257600080fd5b6102fe600480803573ffffffffffffffffffffffffffffffffffffffff16906020019091905050610df8565b604051808215151515815260200191505060405180910390f35b341561032357600080fd5b61032b610e44565b6040518080602001828103825283818151815260200191508051906020019080838360005b8381101561036b578082015181840152602081019050610350565b50505050905090810190601f1680156103985780820380516001836020036101000a031916815260200191505b509250505060405180910390f35b34156103b157600080fd5b6103b9610ee2565b6040518080602001828103825283818151815260200191508051906020019080838360005b838110156103f95780820151818401526020810190506103de565b50505050905090810190601f1680156104265780820380516001836020036101000a031916815260200191505b509250505060405180910390f35b341561043f57600080fd5b610447610f80565b6040518080602001828103825283818151815260200191508051906020019080838360005b8381101561048757808201518184015260208101905061046c565b50505050905090810190601f1680156104b45780820380516001836020036101000a031916815260200191505b509250505060405180910390f35b34156104cd57600080fd5b6104d561101e565b604051808273ffffffffffffffffffffffffffffffffffffffff1673ffffffffffffffffffffffffffffffffffffffff16815260200191505060405180910390f35b341561052257600080fd5b61052a611043565b6040518082815260200191505060405180910390f35b341561054b57600080fd5b610577600480803573ffffffffffffffffffffffffffffffffffffffff16906020019091905050611049565b005b341561058457600080fd5b61058c6110e8565b604051808273ffffffffffffffffffffffffffffffffffffffff1673ffffffffffffffffffffffffffffffffffffffff16815260200191505060405180910390f35b34156105d957600080fd5b6105e161110e565b6040518080602001828103825283818151815260200191508051906020019080838360005b83811015610621578082015181840152602081019050610606565b50505050905090810190601f16801561064e5780820380516001836020036101000a031916815260200191505b509250505060405180910390f35b341561066757600080fd5b6106b7600480803590602001908201803590602001908080601f016020809104026020016040519081016040528093929190818152602001838380828437820191505050505050919050506111ac565b604051808215151515815260200191505060405180910390f35b34156106dc57600080fd5b6107f5600480803590602001908201803590602001908080601f0160208091040260200160405190810160405280939291908181526020018383808284378201915050505050509190803590602001908201803590602001908080601f0160208091040260200160405190810160405280939291908181526020018383808284378201915050505050509190803590602001908201803590602001908080601f0160208091040260200160405190810160405280939291908181526020018383808284378201915050505050509190803590602001908201803590602001908080601f0160208091040260200160405190810160405280939291908181526020018383808284378201915050505050509190505061122e565b005b341561080257600080fd5b61082e600480803573ffffffffffffffffffffffffffffffffffffffff169060200190919050506112eb565b005b610838611389565b6000600960003373ffffffffffffffffffffffffffffffffffffffff1673ffffffffffffffffffffffffffffffffffffffff168152602001908152602001600020541415151561088757600080fd5b3373ffffffffffffffffffffffffffffffffffffffff167f1b3fe7e88b654f891e3784bb6610351f40123e487bf6ef019458e7f5cd7beade6003604051808060200182810382528381815460018160011615610100020316600290048152602001915080546001816001161561010002031660029004801561094a5780601f1061091f5761010080835404028352916020019161094a565b820191906000526020600020905b81548152906001019060200180831161092d57829003601f168201915b50509250505060405180910390a260038054600181600116156101000203166002900480601f0160208091040260200160405190810160405280929190818152602001828054600181600116156101000203166002900480156109ee5780601f106109c3576101008083540402835291602001916109ee565b820191906000526020600020905b8154815290600101906020018083116109d157829003601f168201915b5050505050905090565b610a00611389565b6000806005543410151515610a1457600080fd5b34600960003373ffffffffffffffffffffffffffffffffffffffff1673ffffffffffffffffffffffffffffffffffffffff168152602001908152602001600020819055506001600a856040518082805190602001908083835b602083101515610a925780518252602082019150602081019050602083039250610a6d565b6001836020036101000a038019825116818451168082178552505050505050905001915050908152602001604051809103902060006101000a81548160ff0219169083151502179055503373ffffffffffffffffffffffffffffffffffffffff167f1160f7e42acc25ce40a0499151736a0092c23685ef042576f568bd2435a11a3685346040518080602001838152602001828103825284818151815260200191508051906020019080838360005b83811015610b5c578082015181840152602081019050610b41565b50505050905090810190601f168015610b895780820380516001836020036101000a031916815260200191505b50935050505060405180910390a2600a60093402811515610ba657fe5b0491508134039050600260009054906101000a900473ffffffffffffffffffffffffffffffffffffffff1673ffffffffffffffffffffffffffffffffffffffff166108fc839081150290604051600060405180830381858888f193505050501515610c1057600080fd5b600260009054906101000a900473ffffffffffffffffffffffffffffffffffffffff1673ffffffffffffffffffffffffffffffffffffffff167f69ca02dd4edd7bf0a4abb9ed3b7af3f14778db5d61921c7dc7cd545266326de2836040518082815260200191505060405180910390a26000809054906101000a900473ffffffffffffffffffffffffffffffffffffffff1673ffffffffffffffffffffffffffffffffffffffff166108fc829081150290604051600060405180830381858888f193505050501515610ce157600080fd5b6000809054906101000a900473ffffffffffffffffffffffffffffffffffffffff1673ffffffffffffffffffffffffffffffffffffffff167f69ca02dd4edd7bf0a4abb9ed3b7af3f14778db5d61921c7dc7cd545266326de2826040518082815260200191505060405180910390a28292505050919050565b60068054600181600116156101000203166002900480601f016020809104026020016040519081016040528092919081815260200182805460018160011615610100020316600290048015610df05780601f10610dc557610100808354040283529160200191610df0565b820191906000526020600020905b815481529060010190602001808311610dd357829003601f168201915b505050505081565b600080600960008473ffffffffffffffffffffffffffffffffffffffff1673ffffffffffffffffffffffffffffffffffffffff1681526020019081526020016000205414159050919050565b60018054600181600116156101000203166002900480601f016020809104026020016040519081016040528092919081815260200182805460018160011615610100020316600290048015610eda5780601f10610eaf57610100808354040283529160200191610eda565b820191906000526020600020905b815481529060010190602001808311610ebd57829003601f168201915b505050505081565b60078054600181600116156101000203166002900480601f016020809104026020016040519081016040528092919081815260200182805460018160011615610100020316600290048015610f785780601f10610f4d57610100808354040283529160200191610f78565b820191906000526020600020905b815481529060010190602001808311610f5b57829003601f168201915b505050505081565b60088054600181600116156101000203166002900480601f0160208091040260200160405190810160405280929190818152602001828054600181600116156101000203166002900480156110165780601f10610feb57610100808354040283529160200191611016565b820191906000526020600020905b815481529060010190602001808311610ff957829003601f168201915b505050505081565b6000809054906101000a900473ffffffffffffffffffffffffffffffffffffffff1681565b60055481565b6000809054906101000a900473ffffffffffffffffffffffffffffffffffffffff1673ffffffffffffffffffffffffffffffffffffffff163373ffffffffffffffffffffffffffffffffffffffff161415156110a457600080fd5b80600260006101000a81548173ffffffffffffffffffffffffffffffffffffffff021916908373ffffffffffffffffffffffffffffffffffffffff16021790555050565b600260009054906101000a900473ffffffffffffffffffffffffffffffffffffffff1681565b60048054600181600116156101000203166002900480601f0160208091040260200160405190810160405280929190818152602001828054600181600116156101000203166002900480156111a45780601f10611179576101008083540402835291602001916111a4565b820191906000526020600020905b81548152906001019060200180831161118757829003601f168201915b505050505081565b6000600a826040518082805190602001908083835b6020831015156111e657805182526020820191506020810190506020830392506111c1565b6001836020036101000a038019825116818451168082178552505050505050905001915050908152602001604051809103902060009054906101000a900460ff169050919050565b6000809054906101000a900473ffffffffffffffffffffffffffffffffffffffff1673ffffffffffffffffffffffffffffffffffffffff163373ffffffffffffffffffffffffffffffffffffffff1614151561128957600080fd5b836006908051906020019061129f92919061139d565b5082600790805190602001906112b692919061139d565b5081600890805190602001906112cd92919061139d565b5080600490805190602001906112e492919061139d565b5050505050565b6000809054906101000a900473ffffffffffffffffffffffffffffffffffffffff1673ffffffffffffffffffffffffffffffffffffffff163373ffffffffffffffffffffffffffffffffffffffff1614151561134657600080fd5b806000806101000a81548173ffffffffffffffffffffffffffffffffffffffff021916908373ffffffffffffffffffffffffffffffffffffffff16021790555050565b602060405190810160405280600081525090565b828054600181600116156101000203166002900490600052602060002090601f016020900481019282601f106113de57805160ff191683800117855561140c565b8280016001018555821561140c579182015b8281111561140b5782518255916020019190600101906113f0565b5b509050611419919061141d565b5090565b61143f91905b8082111561143b576000816000905550600101611423565b5090565b905600a165627a7a723058208a0a90d700e217629f586e80e6a340a0fa2f3d4df2f158e1dcffaef32f27ada00029a165627a7a72305820fdd7e3ec79b87f2c40fca8aec2a001f31bdaa6495089e15d99ca5d49c27006980029",
  "source": "pragma solidity ^0.4.18;\n\nimport \"./CopyRightContract.sol\";\n\n\ncontract CRCRegister {\n    //all contracts\n    address[] public fileContracts;\n    //contract => author\n    mapping(address => address) public contractAuthor;\n    //author => contracts[]\n    mapping(address => address[]) public authorContracts;\n\n    event Register(address author, string authorName, uint256 price, address crContract);\n    event Paied(address from, uint256 amount);\n    event UpdateContractInfo(address crContract, string title, string description, string keywords, string previewFileHash);\n\n    function CopyRightContractRegister() public {\n        //fileContracts = new address[](0);\n    }\n\n    /*\n    hash\n    */\n    function register(\n        string fileHash, \n        string authorName, \n        uint256 price) \n        public returns(address _fileContract){\n        address crc = address(new CopyRightContract(fileHash, msg.sender, authorName, price));\n\n        fileContracts.push(crc);\n        contractAuthor[crc] = msg.sender; \n\n        authorContracts[msg.sender].push(crc);\n\n        Register(msg.sender, authorName, price, crc);\n        return crc;\n    }\n\n    function updateContractInfo(\n        address crContract, \n        string title, \n        string description, \n        string keywords, \n        string previewFileHash) {\n        require(msg.sender == contractAuthor[crContract]);\n        CopyRightContract crc = CopyRightContract(crContract);\n        crc.setMetaInfo(title, description,keywords, previewFileHash);\n        UpdateContractInfo(crContract,title,description,keywords,previewFileHash);\n    }\n\n    /*\n    20\n    */\n    function list(uint256 start, uint256 length) constant public \n        returns(address[] _fileContracts) {\n        require(start >= 0 && start < fileContracts.length);\n        require(length >=0 && length <= 20);\n        if(length > fileContracts.length - start) length = fileContracts.length - start;\n\n        address[] memory results =  new address[](length);\n        for(uint8 i=0; i<length; i=i+1) {\n            results[i] = fileContracts[start+i];\n        }\n        return results;\n    }\n\n    /*\n    20\n    */\n    function listByAuthor(address author, uint256 start, uint256 length) constant public \n        returns(address[] _fileContracts) {\n        address[] contracts = authorContracts[author];\n\n        require(start >= 0 && start < contracts.length);\n        require(length >=0 && length <= 20);\n        if(length > contracts.length - start) length = contracts.length - start;\n\n        address[] memory results =  new address[](length);\n        for(uint8 i=0; i<length; i=i+1) {\n            results[i] = contracts[start+i];\n        }\n        return results;\n    }\n\n    function() payable public {\n        Paied(msg.sender, msg.value);\n    }\n}",
  "sourcePath": "/Users/phx/eth/chainstock/contracts/CRCRegister.sol",
  "compiler": {
    "name": "solc",
    "version": "0.4.19+commit.c4cbbb05.Emscripten.clang"
  },
  "schemaVersion": "1.0.1",
  "updatedAt": "2018-02-23T03:36:38.515Z"
}