{
  "contractName": "CRCTokenReserve",
  "abi": [
    {
      "constant": true,
      "inputs": [],
      "name": "owner",
      "outputs": [
        {
          "name": "",
          "type": "address"
        }
      ],
      "payable": false,
      "stateMutability": "view",
      "type": "function"
    },
    {
      "constant": true,
      "inputs": [],
      "name": "tokenAddress",
      "outputs": [
        {
          "name": "",
          "type": "address"
        }
      ],
      "payable": false,
      "stateMutability": "view",
      "type": "function"
    },
    {
      "constant": false,
      "inputs": [
        {
          "name": "newOwner",
          "type": "address"
        }
      ],
      "name": "transferOwnership",
      "outputs": [],
      "payable": false,
      "stateMutability": "nonpayable",
      "type": "function"
    },
    {
      "anonymous": false,
      "inputs": [
        {
          "indexed": false,
          "name": "tokenAddress",
          "type": "address"
        }
      ],
      "name": "SetTokenAddress",
      "type": "event"
    },
    {
      "anonymous": false,
      "inputs": [
        {
          "indexed": false,
          "name": "author",
          "type": "address"
        },
        {
          "indexed": false,
          "name": "tokenAwarded",
          "type": "uint256"
        },
        {
          "indexed": false,
          "name": "reservedTokenAmount",
          "type": "uint256"
        },
        {
          "indexed": false,
          "name": "totalSupply",
          "type": "uint256"
        }
      ],
      "name": "AwardToken",
      "type": "event"
    },
    {
      "anonymous": false,
      "inputs": [
        {
          "indexed": false,
          "name": "buyer",
          "type": "address"
        },
        {
          "indexed": false,
          "name": "value",
          "type": "uint256"
        },
        {
          "indexed": false,
          "name": "tokenAmount",
          "type": "uint256"
        },
        {
          "indexed": false,
          "name": "buyPrice",
          "type": "uint256"
        },
        {
          "indexed": false,
          "name": "tokenAddress",
          "type": "address"
        }
      ],
      "name": "Buy",
      "type": "event"
    },
    {
      "anonymous": false,
      "inputs": [
        {
          "indexed": false,
          "name": "seller",
          "type": "address"
        },
        {
          "indexed": false,
          "name": "tokenAmount",
          "type": "uint256"
        },
        {
          "indexed": false,
          "name": "value",
          "type": "uint256"
        },
        {
          "indexed": false,
          "name": "sellPrice",
          "type": "uint256"
        },
        {
          "indexed": false,
          "name": "tokenAddress",
          "type": "address"
        }
      ],
      "name": "Sell",
      "type": "event"
    },
    {
      "anonymous": false,
      "inputs": [
        {
          "indexed": false,
          "name": "total",
          "type": "uint256"
        },
        {
          "indexed": false,
          "name": "reservedToken",
          "type": "uint256"
        },
        {
          "indexed": false,
          "name": "reservedEth",
          "type": "uint256"
        },
        {
          "indexed": false,
          "name": "marketToken",
          "type": "uint256"
        },
        {
          "indexed": false,
          "name": "price",
          "type": "uint256"
        }
      ],
      "name": "GetPrice",
      "type": "event"
    },
    {
      "constant": false,
      "inputs": [],
      "name": "buy",
      "outputs": [],
      "payable": true,
      "stateMutability": "payable",
      "type": "function"
    },
    {
      "constant": false,
      "inputs": [
        {
          "name": "_from",
          "type": "address"
        },
        {
          "name": "_amount",
          "type": "uint256"
        },
        {
          "name": "_token",
          "type": "address"
        },
        {
          "name": "_extraData",
          "type": "bytes"
        }
      ],
      "name": "receiveApproval",
      "outputs": [],
      "payable": false,
      "stateMutability": "nonpayable",
      "type": "function"
    },
    {
      "constant": false,
      "inputs": [
        {
          "name": "_tokenAddress",
          "type": "address"
        }
      ],
      "name": "setTokenAddress",
      "outputs": [],
      "payable": false,
      "stateMutability": "nonpayable",
      "type": "function"
    }
  ],
  "bytecode": "0x6060604052336000806101000a81548173ffffffffffffffffffffffffffffffffffffffff021916908373ffffffffffffffffffffffffffffffffffffffff160217905550610d2d806100536000396000f300606060405260043610610078576000357c0100000000000000000000000000000000000000000000000000000000900463ffffffff16806326a4e8d21461007d5780638da5cb5b146100b65780638f4ffcb11461010b5780639d76ea58146101af578063a6f2ae3a14610204578063f2fde38b1461020e575b600080fd5b341561008857600080fd5b6100b4600480803573ffffffffffffffffffffffffffffffffffffffff16906020019091905050610247565b005b34156100c157600080fd5b6100c961036b565b604051808273ffffffffffffffffffffffffffffffffffffffff1673ffffffffffffffffffffffffffffffffffffffff16815260200191505060405180910390f35b341561011657600080fd5b6101ad600480803573ffffffffffffffffffffffffffffffffffffffff1690602001909190803590602001909190803573ffffffffffffffffffffffffffffffffffffffff1690602001909190803590602001908201803590602001908080601f01602080910402602001604051908101604052809392919081815260200183838082843782019150505050505091905050610390565b005b34156101ba57600080fd5b6101c2610836565b604051808273ffffffffffffffffffffffffffffffffffffffff1673ffffffffffffffffffffffffffffffffffffffff16815260200191505060405180910390f35b61020c61085c565b005b341561021957600080fd5b610245600480803573ffffffffffffffffffffffffffffffffffffffff16906020019091905050610a34565b005b6000809054906101000a900473ffffffffffffffffffffffffffffffffffffffff1673ffffffffffffffffffffffffffffffffffffffff163373ffffffffffffffffffffffffffffffffffffffff161415156102a257600080fd5b80600160006101000a81548173ffffffffffffffffffffffffffffffffffffffff021916908373ffffffffffffffffffffffffffffffffffffffff1602179055507f33a7e73920e7bb871d64f12f439f70e8d764c488da2188d67bd27ddb60205137600160009054906101000a900473ffffffffffffffffffffffffffffffffffffffff16604051808273ffffffffffffffffffffffffffffffffffffffff1673ffffffffffffffffffffffffffffffffffffffff16815260200191505060405180910390a150565b6000809054906101000a900473ffffffffffffffffffffffffffffffffffffffff1681565b60008060008473ffffffffffffffffffffffffffffffffffffffff16600160009054906101000a900473ffffffffffffffffffffffffffffffffffffffff1673ffffffffffffffffffffffffffffffffffffffff161415156103f157600080fd5b600160009054906101000a900473ffffffffffffffffffffffffffffffffffffffff16925061041e610ad2565b9150670de0b6b3a764000082870281151561043557fe5b049050858373ffffffffffffffffffffffffffffffffffffffff166370a08231896000604051602001526040518263ffffffff167c0100000000000000000000000000000000000000000000000000000000028152600401808273ffffffffffffffffffffffffffffffffffffffff1673ffffffffffffffffffffffffffffffffffffffff168152602001915050602060405180830381600087803b15156104dc57600080fd5b6102c65a03f115156104ed57600080fd5b505050604051805190501015151561050157fe5b858373ffffffffffffffffffffffffffffffffffffffff1663dd62ed3e89306000604051602001526040518363ffffffff167c0100000000000000000000000000000000000000000000000000000000028152600401808373ffffffffffffffffffffffffffffffffffffffff1673ffffffffffffffffffffffffffffffffffffffff1681526020018273ffffffffffffffffffffffffffffffffffffffff1673ffffffffffffffffffffffffffffffffffffffff16815260200192505050602060405180830381600087803b15156105d957600080fd5b6102c65a03f115156105ea57600080fd5b50505060405180519050101515156105fe57fe5b803073ffffffffffffffffffffffffffffffffffffffff16311015151561062157fe5b8273ffffffffffffffffffffffffffffffffffffffff166323b872dd8830896000604051602001526040518463ffffffff167c0100000000000000000000000000000000000000000000000000000000028152600401808473ffffffffffffffffffffffffffffffffffffffff1673ffffffffffffffffffffffffffffffffffffffff1681526020018373ffffffffffffffffffffffffffffffffffffffff1673ffffffffffffffffffffffffffffffffffffffff1681526020018281526020019350505050602060405180830381600087803b151561070057600080fd5b6102c65a03f1151561071157600080fd5b50505060405180519050508673ffffffffffffffffffffffffffffffffffffffff166108fc829081150290604051600060405180830381858888f19350505050151561075c57600080fd5b7fc468806eb98fde457a1d65e86bb4b54d2b0db495952081b9395d7826212a369b87878385600160009054906101000a900473ffffffffffffffffffffffffffffffffffffffff16604051808673ffffffffffffffffffffffffffffffffffffffff1673ffffffffffffffffffffffffffffffffffffffff1681526020018581526020018481526020018381526020018273ffffffffffffffffffffffffffffffffffffffff1673ffffffffffffffffffffffffffffffffffffffff1681526020019550505050505060405180910390a150505050505050565b600160009054906101000a900473ffffffffffffffffffffffffffffffffffffffff1681565b6000806000600160009054906101000a900473ffffffffffffffffffffffffffffffffffffffff16925061088e610ad2565b915081670de0b6b3a764000034028115156108a557fe5b0490508273ffffffffffffffffffffffffffffffffffffffff1663a9059cbb33836040518363ffffffff167c0100000000000000000000000000000000000000000000000000000000028152600401808373ffffffffffffffffffffffffffffffffffffffff1673ffffffffffffffffffffffffffffffffffffffff16815260200182815260200192505050600060405180830381600087803b151561094a57600080fd5b6102c65a03f1151561095b57600080fd5b5050507f678bff21967f2f3a09540ac4650c6827fff735b884ee0cede358697f4fbfaf8433348385600160009054906101000a900473ffffffffffffffffffffffffffffffffffffffff16604051808673ffffffffffffffffffffffffffffffffffffffff1673ffffffffffffffffffffffffffffffffffffffff1681526020018581526020018481526020018381526020018273ffffffffffffffffffffffffffffffffffffffff1673ffffffffffffffffffffffffffffffffffffffff1681526020019550505050505060405180910390a1505050565b6000809054906101000a900473ffffffffffffffffffffffffffffffffffffffff1673ffffffffffffffffffffffffffffffffffffffff163373ffffffffffffffffffffffffffffffffffffffff16141515610a8f57600080fd5b806000806101000a81548173ffffffffffffffffffffffffffffffffffffffff021916908373ffffffffffffffffffffffffffffffffffffffff16021790555050565b600080600080600160009054906101000a900473ffffffffffffffffffffffffffffffffffffffff1692508273ffffffffffffffffffffffffffffffffffffffff166318160ddd6000604051602001526040518163ffffffff167c0100000000000000000000000000000000000000000000000000000000028152600401602060405180830381600087803b1515610b6957600080fd5b6102c65a03f11515610b7a57600080fd5b5050506040518051905091508273ffffffffffffffffffffffffffffffffffffffff166370a08231306000604051602001526040518263ffffffff167c0100000000000000000000000000000000000000000000000000000000028152600401808273ffffffffffffffffffffffffffffffffffffffff1673ffffffffffffffffffffffffffffffffffffffff168152602001915050602060405180830381600087803b1515610c2957600080fd5b6102c65a03f11515610c3a57600080fd5b5050506040518051905090506000818303111515610c5457fe5b8082036014670de0b6b3a76400003073ffffffffffffffffffffffffffffffffffffffff16310202811515610c8557fe5b0493507f4c108a2515f4455b260bbbda8ababeea7a962d43719801ec82f3ba291a3aab6882823073ffffffffffffffffffffffffffffffffffffffff163184860388604051808681526020018581526020018481526020018381526020018281526020019550505050505060405180910390a1839350505050905600a165627a7a723058204bc3f3d8606dcc7f59a7cff79381e445351515c3397a419f3f30080ed54efc3f0029",
  "source": "pragma solidity ^0.4.18;\n\nimport \"./owned.sol\";\nimport \"./CopyRightContract.sol\";\nimport \"./ChainStockToken.sol\";\nimport \"./SafeMath.sol\";\n\ncontract CRCTokenReserve is owned{\n    //token address\n    address public tokenAddress;\n    \n    event SetTokenAddress(address tokenAddress);\n    event AwardToken(address author, uint256 tokenAwarded, uint256 reservedTokenAmount, uint256 totalSupply);\n    event Buy(address buyer, uint256 value, uint256 tokenAmount, uint256 buyPrice, address tokenAddress);\n    event Sell(address seller, uint256 tokenAmount, uint256 value, uint256 sellPrice, address tokenAddress);\n    event GetPrice(uint256 total, uint256 reservedToken, uint256 reservedEth, uint256 marketToken, uint256 price);\n\n    //返回的price是每CST的Wei价格\n    function getPrice() internal returns(uint256 price) {\n        ChainStockToken cst = ChainStockToken(tokenAddress);\n        uint256 totalSupply = cst.totalSupply();\n        uint256 tokenBalance = cst.balanceOf(this);\n        assert(totalSupply - tokenBalance > 0);\n        price = uint256(this.balance * 10**18 * 20 / (totalSupply - tokenBalance));\n        GetPrice(totalSupply, tokenBalance, this.balance, totalSupply - tokenBalance ,price);\n        return price;\n    }\n\n    //买入token，价格等于ethbalance*20/tokenCount\n    function buy() payable public {\n        ChainStockToken cst = ChainStockToken(tokenAddress);\n        \n        uint256 buyPrice = getPrice();\n        uint256 amount = uint256(msg.value * 10**18 / buyPrice);            // calculates the amount\n\n        cst.transfer(msg.sender, amount);              // makes the transfers\n        Buy(msg.sender, msg.value, amount, buyPrice, tokenAddress);\n    }\n\n    //卖出token\n    //TODO: 需要有每个人的兑付限制，防止恶意挤兑\n    function receiveApproval(address _from, uint256 _amount, address _token, bytes _extraData) public {\n        require(tokenAddress == _token);\n\n        ChainStockToken cst = ChainStockToken(tokenAddress);\n        uint256 sellPrice = getPrice();\n        uint256 value = _amount * sellPrice / 10**18;            // calculates the amount\n\n        assert(cst.balanceOf(_from) >= _amount);\n        assert(cst.allowance(_from, this) >= _amount);\n        assert(this.balance >= value);\n\n        cst.transferFrom(_from, this, _amount);              // makes the transfers\n        _from.transfer(value);\n        Sell(_from, _amount, value, sellPrice, tokenAddress);\n    }\n\n    //奖励token，单位是CST\n    function awardToken(address _author, uint256 tokenCount) internal{\n        //上传一个文件发一个token\n        ChainStockToken cst = ChainStockToken(tokenAddress);\n        uint256 tokenAwarded = tokenCount * 10 ** uint256(cst.decimals());\n        assert(cst.balanceOf(this) >= tokenAwarded);\n        cst.transfer(msg.sender, tokenAwarded);\n        AwardToken(_author, tokenAwarded, cst.balanceOf(this), cst.totalSupply());\n    }\n\n    function setTokenAddress(address _tokenAddress) public onlyOwner{\n        tokenAddress = _tokenAddress;\n        SetTokenAddress(tokenAddress);\n    }\n}\n\ncontract CRCRegister is owned, CRCTokenReserve{\n    //all contracts\n    address[] public fileContracts;\n    //contract => author\n    mapping(address => address) public contractAuthor;\n    //author => contracts[]\n    mapping(address => address[]) public authorContracts;\n    \n\n    event Register(address indexed author, string authorName, uint256 price, address indexed crContract);\n    event Paied(address from, uint256 amount);\n    event UpdateContractInfo(address indexed crContract, string title, string description, string keywords, string previewFileHash);\n    \n    function CopyRightContractRegister() public {\n        //fileContracts = new address[](0);\n    }\n\n    /*\n    注册新的文件hash和价格(ETH)\n    TODO:针对fileHash去重\n    */\n    function register(\n        string fileHash, \n        string authorName, \n        uint256 price) \n        public returns(address _fileContract){\n        address crc = address(new CopyRightContract(fileHash, msg.sender, authorName, price));\n\n        fileContracts.push(crc);\n        contractAuthor[crc] = msg.sender; \n\n        authorContracts[msg.sender].push(crc);\n\n        awardToken(msg.sender, 1);\n        Register(msg.sender, authorName, price, crc);\n        return crc;\n    }\n\n    function updateContractInfo (\n        address crContract, \n        string title, \n        string description, \n        string keywords, \n        string previewFileHash) public{\n        require(msg.sender == contractAuthor[crContract]);\n        CopyRightContract crc = CopyRightContract(crContract);\n        crc.setMetaInfo(title, description,keywords, previewFileHash);\n        UpdateContractInfo(crContract,title,description,keywords,previewFileHash);\n    }\n\n    /*\n    获得版权合约的列表，不超过20条\n    */\n    function list(uint256 start, uint256 length, bool reverse) constant public \n        returns(address[] _fileContracts) {\n        require(start >= 0 && start < fileContracts.length);\n        require(length >=0 && length <= 20);\n        if(length > fileContracts.length - start) length = fileContracts.length - start;\n\n        address[] memory results =  new address[](length);\n        for(uint256 i=0; i<length; i=i+1) {\n            uint256 index = start + i;\n            if(reverse) {\n                index = fileContracts.length - index - 1;\n            }\n            results[i] = fileContracts[index];\n        }\n        return results;\n    }\n\n    /*\n    获得某个作者的版权合约列表，不超过20条\n    */\n    function listByAuthor(address author, uint256 start, uint256 length) constant public \n        returns(address[] _fileContracts) {\n        address[] memory contracts = authorContracts[author];\n\n        require(start >= 0 && start < contracts.length);\n        require(length >=0 && length <= 20);\n        if(length > contracts.length - start) length = contracts.length - start;\n\n        address[] memory results =  new address[](length);\n        for(uint8 i=0; i<length; i=i+1) {\n            results[i] = contracts[start+i];\n        }\n        return results;\n    }\n\n    function() payable public {\n        Paied(msg.sender, msg.value);\n    }\n}",
  "sourcePath": "/Users/phx/eth/chainstock/contracts/CRCRegister.sol",
  "compiler": {
    "name": "solc",
    "version": "0.4.19+commit.c4cbbb05.Emscripten.clang"
  },
  "schemaVersion": "1.0.1",
  "updatedAt": "2018-02-27T12:50:31.647Z"
}