{
  "contractName": "owned",
  "abi": [
    {
      "constant": true,
      "inputs": [],
      "name": "owner",
      "outputs": [
        {
          "name": "",
          "type": "address"
        }
      ],
      "payable": false,
      "stateMutability": "view",
      "type": "function"
    },
    {
      "inputs": [],
      "payable": false,
      "stateMutability": "nonpayable",
      "type": "constructor"
    },
    {
      "constant": false,
      "inputs": [
        {
          "name": "newOwner",
          "type": "address"
        }
      ],
      "name": "transferOwnership",
      "outputs": [],
      "payable": false,
      "stateMutability": "nonpayable",
      "type": "function"
    }
  ],
  "bytecode": "0x6060604052341561000f57600080fd5b336000806101000a81548173ffffffffffffffffffffffffffffffffffffffff021916908373ffffffffffffffffffffffffffffffffffffffff1602179055506101ce8061005e6000396000f30060606040526004361061004c576000357c0100000000000000000000000000000000000000000000000000000000900463ffffffff1680638da5cb5b14610051578063f2fde38b146100a6575b600080fd5b341561005c57600080fd5b6100646100df565b604051808273ffffffffffffffffffffffffffffffffffffffff1673ffffffffffffffffffffffffffffffffffffffff16815260200191505060405180910390f35b34156100b157600080fd5b6100dd600480803573ffffffffffffffffffffffffffffffffffffffff16906020019091905050610104565b005b6000809054906101000a900473ffffffffffffffffffffffffffffffffffffffff1681565b6000809054906101000a900473ffffffffffffffffffffffffffffffffffffffff1673ffffffffffffffffffffffffffffffffffffffff163373ffffffffffffffffffffffffffffffffffffffff1614151561015f57600080fd5b806000806101000a81548173ffffffffffffffffffffffffffffffffffffffff021916908373ffffffffffffffffffffffffffffffffffffffff160217905550505600a165627a7a723058204fd5c829e328d8cdce85c187265d6ea6d2a46c92c31ace18ece88399fce8e8660029",
  "source": "pragma solidity ^0.4.18;\n\ncontract owned {\n    address public owner;\n\n    function owned() public {\n        owner = msg.sender;\n    }\n\n    modifier onlyOwner {\n        require(msg.sender == owner);\n        _;\n    }\n\n    function transferOwnership(address newOwner) onlyOwner public {\n        owner = newOwner;\n    }\n}\n\ncontract CopyRightContract is owned {\n    string public authorName;\n    address public author;\n    string fileHash;\n    string public previewFileHash;\n    uint256 public price;\n    string public title;\n    string public description;\n    string public keywords;\n    \n    mapping (address => uint256) private buyerAddresses;\n    mapping (string => bool) private buyerNames;\n\n    event Buy(address indexed buyerAddress, string  buyerName, uint256 price, string fileHash);\n    event Transfer(address indexed to, uint256 amount);\n    event GetFile(address indexed buyerAddress, string fileHash);\n    \n    function CopyRightContract(\n        string _fileHash,\n        address _authorAddress,\n        string _authorName,\n        uint _price\n        ) public {\n        fileHash = _fileHash;\n        author = _authorAddress;\n        authorName = _authorName;\n        price = _price;\n    }\n\n    function setMetaInfo(\n        string _title, \n        string  _description, \n        string _keywords, \n        string _previewFileHash) \n        public onlyOwner{\n        title = _title;\n        description = _description;\n        keywords = _keywords;\n        previewFileHash = _previewFileHash;\n    }\n\n    function setAuthor(address _authorAddress) public onlyOwner{\n        author = _authorAddress;\n    }\n\n    \n    function buy(string buyerName) payable public returns(string _fileHash) {\n        require(msg.value >= price);\n        buyerAddresses[msg.sender] = msg.value;\n        buyerNames[buyerName] = true;\n        Buy(msg.sender, buyerName, msg.value, fileHash);\n        \n        //9:1分成，作者拿9\n        uint256 authorIncome = uint256(msg.value*9/10);\n        uint256 ownerIncome = msg.value - authorIncome;\n        \n        //转账给作者\n        author.transfer(authorIncome);\n        Transfer(author, authorIncome);\n        \n        //转账给合约创建者（平台）\n        owner.transfer(ownerIncome);\n        Transfer(owner, ownerIncome);\n\n        return fileHash;\n    }\n    \n    function getFile() public returns(string _fileHash) {\n        require(buyerAddresses[msg.sender] != 0);\n        GetFile(msg.sender, fileHash);\n        return fileHash;\n    }\n    \n    function verifyBuyerName(string _buyerName) public constant returns(bool verified){\n        return buyerNames[_buyerName];\n    }\n    \n    function verifyBuyerAddress(address _buyerAddress) public constant returns(bool verified){\n        return buyerAddresses[_buyerAddress] != 0;\n    }\n}",
  "sourcePath": "/Users/phx/eth/chainstock/contracts/CopyRightContract.sol",
  "compiler": {
    "name": "solc",
    "version": "0.4.19+commit.c4cbbb05.Emscripten.clang"
  },
  "schemaVersion": "1.0.1",
  "updatedAt": "2018-02-24T11:56:07.369Z"
}